{
  "transactions": [
    {
      "hash": "0xa9d2eb7de87dd86134fc2dff2ae97b357b8ddc612bdc3b93174726c46b29392a",
      "transactionType": "CALL",
      "contractName": null,
      "contractAddress": "0x012fa6c1295278f922d8ca0c5c770cf32dddbf26",
      "function": "setPeer(uint32,bytes32)",
      "arguments": [
        "40161",
        "0x00000000000000000000000003f78af82816a4fa4e976aad07319ab7a3bdc889"
      ],
      "transaction": {
        "from": "0x8c9c001f821c04513616fd7962b2d8c62f925fd2",
        "to": "0x012fa6c1295278f922d8ca0c5c770cf32dddbf26",
        "gas": "0x101e7",
        "value": "0x0",
        "input": "0x3400288b0000000000000000000000000000000000000000000000000000000000009ce100000000000000000000000003f78af82816a4fa4e976aad07319ab7a3bdc889",
        "nonce": "0xf0",
        "chainId": "0x14a34"
      },
      "additionalContracts": [],
      "isFixedGasLimit": false
    }
  ],
  "receipts": [
    {
      "status": "0x1",
      "cumulativeGasUsed": "0x1c094a8",
      "logs": [
        {
          "address": "0x012fa6c1295278f922d8ca0c5c770cf32dddbf26",
          "topics": [
            "0x238399d427b947898edb290f5ff0f9109849b1c3ba196a42e35f00c50a54b98b"
          ],
          "data": "0x0000000000000000000000000000000000000000000000000000000000009ce100000000000000000000000003f78af82816a4fa4e976aad07319ab7a3bdc889",
          "blockHash": "0xfd8a1f0c8db809e751a6395e0e2aca16e0212ab3497244fe92e32760d39bcb1d",
          "blockNumber": "0x17720f1",
          "transactionHash": "0xa9d2eb7de87dd86134fc2dff2ae97b357b8ddc612bdc3b93174726c46b29392a",
          "transactionIndex": "0x30",
          "logIndex": "0x2b5",
          "removed": false
        }
      ],
      "logsBloom": "0x00000000000000000000000000000000000000000000000000000000000000000000000000000000000000000000000000000000000000000800000000000000000000400000000000000000000000000000000000000000000000000000000000000000000000000000000000000000000100000000000000000000000000000000000000000000000000000000000000000000000000000000000000000000000000000000000000000000000000000000000000000000000002000000000000000000000000000000000000000000000000000000000000040000000000000000000000000000000000000000000000000000000000000800000000000000",
      "type": "0x2",
      "transactionHash": "0xa9d2eb7de87dd86134fc2dff2ae97b357b8ddc612bdc3b93174726c46b29392a",
      "transactionIndex": "0x30",
      "blockHash": "0xfd8a1f0c8db809e751a6395e0e2aca16e0212ab3497244fe92e32760d39bcb1d",
      "blockNumber": "0x17720f1",
      "gasUsed": "0xbab8",
      "effectiveGasPrice": "0x188f4",
      "from": "0x8c9c001f821c04513616fd7962b2d8c62f925fd2",
      "to": "0x012fa6c1295278f922d8ca0c5c770cf32dddbf26",
      "contractAddress": null,
      "l1BaseFeeScalar": "0x44d",
      "l1BlobBaseFee": "0xcbc7",
      "l1BlobBaseFeeScalar": "0xa118b",
      "l1Fee": "0x4446a5",
      "l1GasPrice": "0x8f10b",
      "l1GasUsed": "0x640"
    }
  ],
  "libraries": [],
  "pending": [],
  "returns": {},
  "timestamp": 1744937156,
  "chain": 84532,
  "commit": "4c27433"
}