{
  "transactions": [
    {
      "hash": "0x34c96c437f5b973d3d83733f456939de3c1be30f84cf4f7aa1a3cd9faa9c8532",
      "transactionType": "CALL",
      "contractName": null,
      "contractAddress": "0x012fa6c1295278f922d8ca0c5c770cf32dddbf26",
      "function": "setEnforcedOptions((uint32,uint16,bytes)[])",
      "arguments": [
        "[(40161, 1, 0x00030100110100000000000000000000000000030d40), (40161, 2, 0x000301001303000000000000000000000000000000000000)]"
      ],
      "transaction": {
        "from": "0x8c9c001f821c04513616fd7962b2d8c62f925fd2",
        "to": "0x012fa6c1295278f922d8ca0c5c770cf32dddbf26",
        "gas": "0x1affc",
        "value": "0x0",
        "input": "0xb98bd07000000000000000000000000000000000000000000000000000000000000000200000000000000000000000000000000000000000000000000000000000000002000000000000000000000000000000000000000000000000000000000000004000000000000000000000000000000000000000000000000000000000000000e00000000000000000000000000000000000000000000000000000000000009ce100000000000000000000000000000000000000000000000000000000000000010000000000000000000000000000000000000000000000000000000000000060000000000000000000000000000000000000000000000000000000000000001600030100110100000000000000000000000000030d40000000000000000000000000000000000000000000000000000000000000000000000000000000009ce10000000000000000000000000000000000000000000000000000000000000002000000000000000000000000000000000000000000000000000000000000006000000000000000000000000000000000000000000000000000000000000000180003010013030000000000000000000000000000000000000000000000000000",
        "nonce": "0xf1",
        "chainId": "0x14a34"
      },
      "additionalContracts": [],
      "isFixedGasLimit": false
    }
  ],
  "receipts": [
    {
      "status": "0x1",
      "cumulativeGasUsed": "0x9f5ab1",
      "logs": [
        {
          "address": "0x012fa6c1295278f922d8ca0c5c770cf32dddbf26",
          "topics": [
            "0xbe4864a8e820971c0247f5992e2da559595f7bf076a21cb5928d443d2a13b674"
          ],
          "data": "0x00000000000000000000000000000000000000000000000000000000000000200000000000000000000000000000000000000000000000000000000000000002000000000000000000000000000000000000000000000000000000000000004000000000000000000000000000000000000000000000000000000000000000e00000000000000000000000000000000000000000000000000000000000009ce100000000000000000000000000000000000000000000000000000000000000010000000000000000000000000000000000000000000000000000000000000060000000000000000000000000000000000000000000000000000000000000001600030100110100000000000000000000000000030d40000000000000000000000000000000000000000000000000000000000000000000000000000000009ce10000000000000000000000000000000000000000000000000000000000000002000000000000000000000000000000000000000000000000000000000000006000000000000000000000000000000000000000000000000000000000000000180003010013030000000000000000000000000000000000000000000000000000",
          "blockHash": "0x12deeb8e76ea771cdec987f8574288e0f867dae9f9f90cda224d75f8353f0959",
          "blockNumber": "0x177210f",
          "transactionHash": "0x34c96c437f5b973d3d83733f456939de3c1be30f84cf4f7aa1a3cd9faa9c8532",
          "transactionIndex": "0x27",
          "logIndex": "0x104",
          "removed": false
        }
      ],
      "logsBloom": "0x00000000000000000000000000000000000000000000000000000000000000000000000000000000000000000000000000000000000000000000400000000000000000400000000000000000000000000000000000000000000000000000000000000000000000000000000000000000000100000000000000000000000000000000000000000000000000000000000000000000000000000000000000080000000000000000000000000000000000000000000000000000000000000000000000000000000000000000000002000000000000000000000000000000000000000000000000000000000000000000000000000000000000000800000000000000",
      "type": "0x2",
      "transactionHash": "0x34c96c437f5b973d3d83733f456939de3c1be30f84cf4f7aa1a3cd9faa9c8532",
      "transactionIndex": "0x27",
      "blockHash": "0x12deeb8e76ea771cdec987f8574288e0f867dae9f9f90cda224d75f8353f0959",
      "blockNumber": "0x177210f",
      "gasUsed": "0x138c0",
      "effectiveGasPrice": "0x18902",
      "from": "0x8c9c001f821c04513616fd7962b2d8c62f925fd2",
      "to": "0x012fa6c1295278f922d8ca0c5c770cf32dddbf26",
      "contractAddress": null,
      "l1BaseFeeScalar": "0x44d",
      "l1BlobBaseFee": "0x12dc3",
      "l1BlobBaseFeeScalar": "0xa118b",
      "l1Fee": "0x817169",
      "l1GasPrice": "0x86b27",
      "l1GasUsed": "0x8bc"
    }
  ],
  "libraries": [],
  "pending": [],
  "returns": {},
  "timestamp": 1744937216,
  "chain": 84532,
  "commit": "4c27433"
}