{
  "transactions": [
    {
      "hash": "0xd31c38af09be392b6ca79767881b1690f2e484a2355f9dd86918be1df8a436b1",
      "transactionType": "CALL",
      "contractName": null,
      "contractAddress": "0x2b11834ed1feaed4b4b3a86a6f571315e25a884d",
      "function": "setDelegate(address)",
      "arguments": [
        "0x869dF055A67669D0d8CfA590dBFAa86fF48B7eac"
      ],
      "transaction": {
        "from": "0x84db3d1de9a43aa144c21b248ad31a1c83d8334d",
        "to": "0x2b11834ed1feaed4b4b3a86a6f571315e25a884d",
        "gas": "0xbb87",
        "value": "0x0",
        "input": "0xca5eb5e1000000000000000000000000869df055a67669d0d8cfa590dbfaa86ff48b7eac",
        "nonce": "0xc",
        "chainId": "0x2105"
      },
      "additionalContracts": [],
      "isFixedGasLimit": false
    }
  ],
  "receipts": [
    {
      "status": "0x1",
      "cumulativeGasUsed": "0x1ab77cd",
      "logs": [
        {
          "address": "0x1a44076050125825900e736c501f859c50fe728c",
          "topics": [
            "0x6ee10e9ed4d6ce9742703a498707862f4b00f1396a87195eb93267b3d7983981"
          ],
          "data": "0x0000000000000000000000002b11834ed1feaed4b4b3a86a6f571315e25a884d000000000000000000000000869df055a67669d0d8cfa590dbfaa86ff48b7eac",
          "blockHash": "0xcd143a9c0feb6f3e3d6177569ae224c0993e88b6e51aa090e3313c867a0c22bf",
          "blockNumber": "0x18b94f6",
          "transactionHash": "0xd31c38af09be392b6ca79767881b1690f2e484a2355f9dd86918be1df8a436b1",
          "transactionIndex": "0x7a",
          "logIndex": "0xcb",
          "removed": false
        }
      ],
      "logsBloom": "0x00000000000000000000000000000000000000000000000000800000001000000000000000000000000000000000000000000002000000000000000000000000000000000000000000000000000000000000000000000000000000000000000000000000000000000000000000000000000000000010000000000000000000000000000000000000000000000000000000000000000000000000000000000000000000000000000000000000000000000000000000000000000000000000000400000000000000000000000000000000000000000000000000000000000000000000000000000000000000000000000000000000010000000000000000000000",
      "type": "0x2",
      "transactionHash": "0xd31c38af09be392b6ca79767881b1690f2e484a2355f9dd86918be1df8a436b1",
      "transactionIndex": "0x7a",
      "blockHash": "0xcd143a9c0feb6f3e3d6177569ae224c0993e88b6e51aa090e3313c867a0c22bf",
      "blockNumber": "0x18b94f6",
      "gasUsed": "0x87c5",
      "effectiveGasPrice": "0x3ca917",
      "from": "0x84db3d1de9a43aa144c21b248ad31a1c83d8334d",
      "to": "0x2b11834ed1feaed4b4b3a86a6f571315e25a884d",
      "contractAddress": null,
      "l1BaseFeeScalar": "0x8dd",
      "l1BlobBaseFee": "0x1a4e602c",
      "l1BlobBaseFeeScalar": "0x101c12",
      "l1Fee": "0xd5895446a",
      "l1GasPrice": "0xb0172f73",
      "l1GasUsed": "0x640"
    }
  ],
  "libraries": [],
  "pending": [],
  "returns": {},
  "timestamp": 1738639056,
  "chain": 8453,
  "commit": "abe79db"
}