{
  "transactions": [
    {
      "hash": "0xfa08c39a4355e77104ce603de913657cb8e84009c5f3e22e7318ae803f1c7385",
      "transactionType": "CALL",
      "contractName": null,
      "contractAddress": "0x2b11834ed1feaed4b4b3a86a6f571315e25a884d",
      "function": "setPeer(uint32,bytes32)",
      "arguments": [
        "30101",
        "0x0000000000000000000000002b11834ed1feaed4b4b3a86a6f571315e25a884d"
      ],
      "transaction": {
        "from": "0x84db3d1de9a43aa144c21b248ad31a1c83d8334d",
        "to": "0x2b11834ed1feaed4b4b3a86a6f571315e25a884d",
        "gas": "0x101e7",
        "value": "0x0",
        "input": "0x3400288b00000000000000000000000000000000000000000000000000000000000075950000000000000000000000002b11834ed1feaed4b4b3a86a6f571315e25a884d",
        "nonce": "0x2",
        "chainId": "0x2105"
      },
      "additionalContracts": [],
      "isFixedGasLimit": false
    }
  ],
  "receipts": [
    {
      "status": "0x1",
      "cumulativeGasUsed": "0x1002ac6",
      "logs": [
        {
          "address": "0x2b11834ed1feaed4b4b3a86a6f571315e25a884d",
          "topics": [
            "0x238399d427b947898edb290f5ff0f9109849b1c3ba196a42e35f00c50a54b98b"
          ],
          "data": "0x00000000000000000000000000000000000000000000000000000000000075950000000000000000000000002b11834ed1feaed4b4b3a86a6f571315e25a884d",
          "blockHash": "0x6ad679a660d72dd9318a30a831f75b8a5271ebcadb42a32bbd0bf86ee66d3992",
          "blockNumber": "0x18b8ce4",
          "transactionHash": "0xfa08c39a4355e77104ce603de913657cb8e84009c5f3e22e7318ae803f1c7385",
          "transactionIndex": "0x3c",
          "logIndex": "0x6e",
          "removed": false
        }
      ],
      "logsBloom": "0x00000000000000000000000000000000000000000000000000000000000000000000000000000000000000000000080000000000002000000800000000000000000000000000000000000000000000000000000000000000000000000000000000000000000000000000000000000000000000000000000000000000000000000000000000000000000000000000000000000000000000000000000000000000000000000000000000000000020000000000000000000000000002000000000000000000000000000000000000000000000000000000000000040000000000000000000000000000000000000000000000000000000000000000000000000000",
      "type": "0x2",
      "transactionHash": "0xfa08c39a4355e77104ce603de913657cb8e84009c5f3e22e7318ae803f1c7385",
      "transactionIndex": "0x3c",
      "blockHash": "0x6ad679a660d72dd9318a30a831f75b8a5271ebcadb42a32bbd0bf86ee66d3992",
      "blockNumber": "0x18b8ce4",
      "gasUsed": "0xbab8",
      "effectiveGasPrice": "0x4e8d68",
      "from": "0x84db3d1de9a43aa144c21b248ad31a1c83d8334d",
      "to": "0x2b11834ed1feaed4b4b3a86a6f571315e25a884d",
      "contractAddress": null,
      "l1BaseFeeScalar": "0x8dd",
      "l1BlobBaseFee": "0xb88c528",
      "l1BlobBaseFeeScalar": "0x101c12",
      "l1Fee": "0x788b20eca",
      "l1GasPrice": "0xc3d543f2",
      "l1GasUsed": "0x640"
    }
  ],
  "libraries": [],
  "pending": [],
  "returns": {},
  "timestamp": 1738634925,
  "chain": 8453,
  "commit": "abe79db"
}