{
  "transactions": [
    {
      "hash": "0xb1fa6ac00e06bfbc165e97b53b187594108486cdb72bc67dd3ecd412d7e7576f",
      "transactionType": "CALL",
      "contractName": null,
      "contractAddress": "0x2b11834ed1feaed4b4b3a86a6f571315e25a884d",
      "function": "setWhitelist(address,bool)",
      "arguments": [
        "0x84Db3d1de9a43Aa144C21b248AD31a1c83d8334D",
        "true"
      ],
      "transaction": {
        "from": "0x84db3d1de9a43aa144c21b248ad31a1c83d8334d",
        "to": "0x2b11834ed1feaed4b4b3a86a6f571315e25a884d",
        "gas": "0x103f5",
        "value": "0x0",
        "input": "0x53d6fd5900000000000000000000000084db3d1de9a43aa144c21b248ad31a1c83d8334d0000000000000000000000000000000000000000000000000000000000000001",
        "nonce": "0x4",
        "chainId": "0x2105"
      },
      "additionalContracts": [],
      "isFixedGasLimit": false
    },
    {
      "hash": "0xd0058e4b9cf9f79981f5c3e47dd866379e5c43689b2fbec76e580cfa116f9519",
      "transactionType": "CALL",
      "contractName": null,
      "contractAddress": "0x2b11834ed1feaed4b4b3a86a6f571315e25a884d",
      "function": "setWhitelist(address,bool)",
      "arguments": [
        "0x228e0f99adf8bf367100BBFD9b090Bc0b15c89a9",
        "true"
      ],
      "transaction": {
        "from": "0x84db3d1de9a43aa144c21b248ad31a1c83d8334d",
        "to": "0x2b11834ed1feaed4b4b3a86a6f571315e25a884d",
        "gas": "0x1132f",
        "value": "0x0",
        "input": "0x53d6fd59000000000000000000000000228e0f99adf8bf367100bbfd9b090bc0b15c89a90000000000000000000000000000000000000000000000000000000000000001",
        "nonce": "0x5",
        "chainId": "0x2105"
      },
      "additionalContracts": [],
      "isFixedGasLimit": false
    }
  ],
  "receipts": [
    {
      "status": "0x1",
      "cumulativeGasUsed": "0x35289d7",
      "logs": [
        {
          "address": "0x2b11834ed1feaed4b4b3a86a6f571315e25a884d",
          "topics": [
            "0xf6019ec0a78d156d249a1ec7579e2321f6ac7521d6e1d2eacf90ba4a184dcceb",
            "0x00000000000000000000000084db3d1de9a43aa144c21b248ad31a1c83d8334d"
          ],
          "data": "0x0000000000000000000000000000000000000000000000000000000000000001",
          "blockHash": "0xc7b29a9716190ea3c5b306661131689b297cd5af7b9e2370fb9c150e85c0b6d8",
          "blockNumber": "0x18b8d1e",
          "transactionHash": "0xb1fa6ac00e06bfbc165e97b53b187594108486cdb72bc67dd3ecd412d7e7576f",
          "transactionIndex": "0xc1",
          "logIndex": "0x25a",
          "removed": false
        }
      ],
      "logsBloom": "0x40000000000000000000000000000000000000000000000000000000000000000000000000000000000000000000080000000000002000000000000000800000000000000000000000000000000000000000000000000000000000000000000000000000000000000000000000000000020000000000000000000000000000000000000000000000000000000000000000000000000000000000000000000000000000000000000000000000020000000000000000020000000000000000020000000000000000000000000000000000000000000000000000000000000000000000000000000000000000020000000000000000000000000000000000000000",
      "type": "0x2",
      "transactionHash": "0xb1fa6ac00e06bfbc165e97b53b187594108486cdb72bc67dd3ecd412d7e7576f",
      "transactionIndex": "0xc1",
      "blockHash": "0xc7b29a9716190ea3c5b306661131689b297cd5af7b9e2370fb9c150e85c0b6d8",
      "blockNumber": "0x18b8d1e",
      "gasUsed": "0xbc35",
      "effectiveGasPrice": "0x506780",
      "from": "0x84db3d1de9a43aa144c21b248ad31a1c83d8334d",
      "to": "0x2b11834ed1feaed4b4b3a86a6f571315e25a884d",
      "contractAddress": null,
      "l1BaseFeeScalar": "0x8dd",
      "l1BlobBaseFee": "0x86cdd5c",
      "l1BlobBaseFeeScalar": "0x101c12",
      "l1Fee": "0x675f9ff77",
      "l1GasPrice": "0xd2931f93",
      "l1GasUsed": "0x640"
    },
    {
      "status": "0x1",
      "cumulativeGasUsed": "0x224b493",
      "logs": [
        {
          "address": "0x2b11834ed1feaed4b4b3a86a6f571315e25a884d",
          "topics": [
            "0xf6019ec0a78d156d249a1ec7579e2321f6ac7521d6e1d2eacf90ba4a184dcceb",
            "0x000000000000000000000000228e0f99adf8bf367100bbfd9b090bc0b15c89a9"
          ],
          "data": "0x0000000000000000000000000000000000000000000000000000000000000001",
          "blockHash": "0x7d56a646d1c41a6f2641f00bfcfc02380130630fdc6bb094c102a7e24b77e2fb",
          "blockNumber": "0x18b8d1f",
          "transactionHash": "0xd0058e4b9cf9f79981f5c3e47dd866379e5c43689b2fbec76e580cfa116f9519",
          "transactionIndex": "0x8f",
          "logIndex": "0x19b",
          "removed": false
        }
      ],
      "logsBloom": "0x00000000000000000000000000000000040000000000000000000000000000000000000000000000000000000000080000000000002000000000000000000000000000000000000000000000000000000000000000000000000000000000000000000000000000400000000000000000020000000000000000000000000000000000000000000000000000000000000000000000000000000000000000000000000000000000000000000000020000000000000000020000000000000000020000000000000000000000000000000000000000000000000040000000000000000000000000000000000000000000000000000000000000000000000000000000",
      "type": "0x2",
      "transactionHash": "0xd0058e4b9cf9f79981f5c3e47dd866379e5c43689b2fbec76e580cfa116f9519",
      "transactionIndex": "0x8f",
      "blockHash": "0x7d56a646d1c41a6f2641f00bfcfc02380130630fdc6bb094c102a7e24b77e2fb",
      "blockNumber": "0x18b8d1f",
      "gasUsed": "0xbc29",
      "effectiveGasPrice": "0x507e9c",
      "from": "0x84db3d1de9a43aa144c21b248ad31a1c83d8334d",
      "to": "0x2b11834ed1feaed4b4b3a86a6f571315e25a884d",
      "contractAddress": null,
      "l1BaseFeeScalar": "0x8dd",
      "l1BlobBaseFee": "0x86cdd5c",
      "l1BlobBaseFeeScalar": "0x101c12",
      "l1Fee": "0x675f9ff77",
      "l1GasPrice": "0xd2931f93",
      "l1GasUsed": "0x640"
    }
  ],
  "libraries": [],
  "pending": [],
  "returns": {},
  "timestamp": 1738635043,
  "chain": 8453,
  "commit": "abe79db"
}