{
  "transactions": [
    {
      "hash": "0x2e5622d17c46cd65027c30bc00b94687734955d357c0db9ae27a0522ad216d1f",
      "transactionType": "CALL",
      "contractName": null,
      "contractAddress": "0x2b11834ed1feaed4b4b3a86a6f571315e25a884d",
      "function": "transferOwnership(address)",
      "arguments": [
        "0x869dF055A67669D0d8CfA590dBFAa86fF48B7eac"
      ],
      "transaction": {
        "from": "0x84db3d1de9a43aa144c21b248ad31a1c83d8334d",
        "to": "0x2b11834ed1feaed4b4b3a86a6f571315e25a884d",
        "gas": "0x118b6",
        "value": "0x0",
        "input": "0xf2fde38b000000000000000000000000869df055a67669d0d8cfa590dbfaa86ff48b7eac",
        "nonce": "0xd",
        "chainId": "0x2105"
      },
      "additionalContracts": [],
      "isFixedGasLimit": false
    }
  ],
  "receipts": [
    {
      "status": "0x1",
      "cumulativeGasUsed": "0x2b6232d",
      "logs": [
        {
          "address": "0x2b11834ed1feaed4b4b3a86a6f571315e25a884d",
          "topics": [
            "0x38d16b8cac22d99fc7c124b9cd0de2d3fa1faef420bfe791d8c362d765e22700",
            "0x00000000000000000000000084db3d1de9a43aa144c21b248ad31a1c83d8334d",
            "0x000000000000000000000000869df055a67669d0d8cfa590dbfaa86ff48b7eac"
          ],
          "data": "0x",
          "blockHash": "0x40383576a02440d08399819eb45fd966ff04906d9002127e03e5cc9c0af23cd5",
          "blockNumber": "0x18b9508",
          "transactionHash": "0x2e5622d17c46cd65027c30bc00b94687734955d357c0db9ae27a0522ad216d1f",
          "transactionIndex": "0xb4",
          "logIndex": "0x1a4",
          "removed": false
        }
      ],
      "logsBloom": "0x40000000000000000000000000000000000000000000000000000000000000000000000000000000000000000000080000000000002000000000000000800000000000000000000000000000000000000000000000000000000000000400000000000000000000000000000000000000002800000000000000000000000000000000000000000000000000000000080000000000000000000000000000000000000000000000020000000000020000000000000000000000000000000000000000002000000000000000000000000000000000000000000000000000000000000000000000000000000000020000000000000000000000000000000000000000",
      "type": "0x2",
      "transactionHash": "0x2e5622d17c46cd65027c30bc00b94687734955d357c0db9ae27a0522ad216d1f",
      "transactionIndex": "0xb4",
      "blockHash": "0x40383576a02440d08399819eb45fd966ff04906d9002127e03e5cc9c0af23cd5",
      "blockNumber": "0x18b9508",
      "gasUsed": "0xbff1",
      "effectiveGasPrice": "0x3c531e",
      "from": "0x84db3d1de9a43aa144c21b248ad31a1c83d8334d",
      "to": "0x2b11834ed1feaed4b4b3a86a6f571315e25a884d",
      "contractAddress": null,
      "l1BaseFeeScalar": "0x8dd",
      "l1BlobBaseFee": "0x14c8fcf1",
      "l1BlobBaseFeeScalar": "0x101c12",
      "l1Fee": "0xb1fe01fc5",
      "l1GasPrice": "0xb3ff564a",
      "l1GasUsed": "0x640"
    }
  ],
  "libraries": [],
  "pending": [],
  "returns": {},
  "timestamp": 1738639093,
  "chain": 8453,
  "commit": "abe79db"
}