{
  "transactions": [
    {
      "hash": "0x16d2925acd5f132830d21bd8b299d8e37ab64c8c43daca5be8caaa063f9f0354",
      "transactionType": "CALL",
      "contractName": null,
      "contractAddress": "0x1a44076050125825900e736c501f859c50fe728c",
      "function": "setConfig(address,address,(uint32,uint32,bytes)[])",
      "arguments": [
        "0x2B11834Ed1FeAEd4b4b3a86A6F571315E25A884D",
        "0xc70AB6f32772f59fBfc23889Caf4Ba3376C84bAf",
        "[(30101, 2, 0x0000000000000000000000000000000000000000000000000000000000000020000000000000000000000000000000000000000000000000000000000000000f00000000000000000000000000000000000000000000000000000000000000040000000000000000000000000000000000000000000000000000000000000000000000000000000000000000000000000000000000000000000000000000000000000000000000000000000000000000000000000000000000000000000000c000000000000000000000000000000000000000000000000000000000000001600000000000000000000000000000000000000000000000000000000000000004000000000000000000000000133e9fb2d339d8428476a714b1113b024343811e0000000000000000000000009e059a54699a285714207b43b055483e78faac25000000000000000000000000cd37ca043f8479064e10635020c65ffc005d36f6000000000000000000000000d56e4eab23cb81f43168f9f45211eb027b9ac7cc0000000000000000000000000000000000000000000000000000000000000000)]"
      ],
      "transaction": {
        "from": "0x84db3d1de9a43aa144c21b248ad31a1c83d8334d",
        "to": "0x1a44076050125825900e736c501f859c50fe728c",
        "gas": "0x3e983",
        "value": "0x0",
        "input": "0x6dbd9f900000000000000000000000002b11834ed1feaed4b4b3a86a6f571315e25a884d000000000000000000000000c70ab6f32772f59fbfc23889caf4ba3376c84baf00000000000000000000000000000000000000000000000000000000000000600000000000000000000000000000000000000000000000000000000000000001000000000000000000000000000000000000000000000000000000000000002000000000000000000000000000000000000000000000000000000000000075950000000000000000000000000000000000000000000000000000000000000002000000000000000000000000000000000000000000000000000000000000006000000000000000000000000000000000000000000000000000000000000001a00000000000000000000000000000000000000000000000000000000000000020000000000000000000000000000000000000000000000000000000000000000f00000000000000000000000000000000000000000000000000000000000000040000000000000000000000000000000000000000000000000000000000000000000000000000000000000000000000000000000000000000000000000000000000000000000000000000000000000000000000000000000000000000000000c000000000000000000000000000000000000000000000000000000000000001600000000000000000000000000000000000000000000000000000000000000004000000000000000000000000133e9fb2d339d8428476a714b1113b024343811e0000000000000000000000009e059a54699a285714207b43b055483e78faac25000000000000000000000000cd37ca043f8479064e10635020c65ffc005d36f6000000000000000000000000d56e4eab23cb81f43168f9f45211eb027b9ac7cc0000000000000000000000000000000000000000000000000000000000000000",
        "nonce": "0x8",
        "chainId": "0x2105"
      },
      "additionalContracts": [],
      "isFixedGasLimit": false
    }
  ],
  "receipts": [
    {
      "status": "0x1",
      "cumulativeGasUsed": "0x228a088",
      "logs": [
        {
          "address": "0xc70ab6f32772f59fbfc23889caf4ba3376c84baf",
          "topics": [
            "0x82118522aa536ac0e96cc5c689407ae42b89d592aa133890a01f1509842f5081"
          ],
          "data": "0x0000000000000000000000002b11834ed1feaed4b4b3a86a6f571315e25a884d00000000000000000000000000000000000000000000000000000000000075950000000000000000000000000000000000000000000000000000000000000060000000000000000000000000000000000000000000000000000000000000000f00000000000000000000000000000000000000000000000000000000000000040000000000000000000000000000000000000000000000000000000000000000000000000000000000000000000000000000000000000000000000000000000000000000000000000000000000000000000000000000000000000000000000c000000000000000000000000000000000000000000000000000000000000001600000000000000000000000000000000000000000000000000000000000000004000000000000000000000000133e9fb2d339d8428476a714b1113b024343811e0000000000000000000000009e059a54699a285714207b43b055483e78faac25000000000000000000000000cd37ca043f8479064e10635020c65ffc005d36f6000000000000000000000000d56e4eab23cb81f43168f9f45211eb027b9ac7cc0000000000000000000000000000000000000000000000000000000000000000",
          "blockHash": "0xc41fc4405962b3ac03b74c1f193e16542304d11a0ee3bc79c62ef9269d948d14",
          "blockNumber": "0x18b8e27",
          "transactionHash": "0x16d2925acd5f132830d21bd8b299d8e37ab64c8c43daca5be8caaa063f9f0354",
          "transactionIndex": "0xc1",
          "logIndex": "0x11d",
          "removed": false
        }
      ],
      "logsBloom": "0x00000000000000000000000800000000000000000000000000000000000000000000000000000000000000000000000000000000000000000000000000000000000000000000000000000000000000000000000000000000002000080000000000000000000000000000000000000000000000000000000000000000000000000000000000000000000000000000000000000000000000000000000000000000000000000000000000000002000000000000000000000000000000000000000000000000000000000000000000000000000000000000000000000000000000000000000020000000000000000000000000000000000000000000000000000010",
      "type": "0x2",
      "transactionHash": "0x16d2925acd5f132830d21bd8b299d8e37ab64c8c43daca5be8caaa063f9f0354",
      "transactionIndex": "0xc1",
      "blockHash": "0xc41fc4405962b3ac03b74c1f193e16542304d11a0ee3bc79c62ef9269d948d14",
      "blockNumber": "0x18b8e27",
      "gasUsed": "0x2d514",
      "effectiveGasPrice": "0x4c2ebe",
      "from": "0x84db3d1de9a43aa144c21b248ad31a1c83d8334d",
      "to": "0x1a44076050125825900e736c501f859c50fe728c",
      "contractAddress": null,
      "l1BaseFeeScalar": "0x8dd",
      "l1BlobBaseFee": "0x819d324",
      "l1BlobBaseFeeScalar": "0x101c12",
      "l1Fee": "0xec0f244a9",
      "l1GasPrice": "0xa57f6a71",
      "l1GasUsed": "0x1036"
    }
  ],
  "libraries": [],
  "pending": [],
  "returns": {},
  "timestamp": 1738635571,
  "chain": 8453,
  "commit": "abe79db"
}