{
  "transactions": [
    {
      "hash": "0xcc1237c4f06cd1db9a3136a2ed7bc7f31df2e5d1b4a7a740cb68016f34b89a0b",
      "transactionType": "CALL",
      "contractName": null,
      "contractAddress": "0x2b11834ed1feaed4b4b3a86a6f571315e25a884d",
      "function": "send((uint32,bytes32,uint256,uint256,bytes,bytes,bytes),(uint256,uint256),address)",
      "arguments": [
        "(30101, 0x00000000000000000000000084db3d1de9a43aa144c21b248ad31a1c83d8334d, 1000000000000000000, 1000000000000000000, 0x, 0x, 0x)",
        "(2220158236137003, 0)",
        "0x84Db3d1de9a43Aa144C21b248AD31a1c83d8334D"
      ],
      "transaction": {
        "from": "0x84db3d1de9a43aa144c21b248ad31a1c83d8334d",
        "to": "0x2b11834ed1feaed4b4b3a86a6f571315e25a884d",
        "gas": "0x7c77a",
        "value": "0x7e338df02962b",
        "input": "0xc7c7f5b300000000000000000000000000000000000000000000000000000000000000800000000000000000000000000000000000000000000000000007e338df02962b000000000000000000000000000000000000000000000000000000000000000000000000000000000000000084db3d1de9a43aa144c21b248ad31a1c83d8334d000000000000000000000000000000000000000000000000000000000000759500000000000000000000000084db3d1de9a43aa144c21b248ad31a1c83d8334d0000000000000000000000000000000000000000000000000de0b6b3a76400000000000000000000000000000000000000000000000000000de0b6b3a764000000000000000000000000000000000000000000000000000000000000000000e000000000000000000000000000000000000000000000000000000000000001000000000000000000000000000000000000000000000000000000000000000120000000000000000000000000000000000000000000000000000000000000000000000000000000000000000000000000000000000000000000000000000000000000000000000000000000000000000000000000000000000000000000000000",
        "nonce": "0xa",
        "chainId": "0x2105"
      },
      "additionalContracts": [],
      "isFixedGasLimit": false
    }
  ],
  "receipts": [
    {
      "status": "0x1",
      "cumulativeGasUsed": "0x1d4a967",
      "logs": [
        {
          "address": "0x2b11834ed1feaed4b4b3a86a6f571315e25a884d",
          "topics": [
            "0xddf252ad1be2c89b69c2b068fc378daa952ba7f163c4a11628f55a4df523b3ef",
            "0x00000000000000000000000084db3d1de9a43aa144c21b248ad31a1c83d8334d",
            "0x0000000000000000000000000000000000000000000000000000000000000000"
          ],
          "data": "0x0000000000000000000000000000000000000000000000000de0b6b3a7640000",
          "blockHash": "0xd687b3907e0a4efc5761a212e9b594b01699120b6a1e12ad4ab5c95e5046efa0",
          "blockNumber": "0x18b9161",
          "transactionHash": "0xcc1237c4f06cd1db9a3136a2ed7bc7f31df2e5d1b4a7a740cb68016f34b89a0b",
          "transactionIndex": "0x84",
          "logIndex": "0x11d",
          "removed": false
        },
        {
          "address": "0xb5320b0b3a13cc860893e2bd79fcd7e13484dda2",
          "topics": [
            "0x61ed099e74a97a1d7f8bb0952a88ca8b7b8ebd00c126ea04671f92a81213318a"
          ],
          "data": "0x0000000000000000000000002cca08ae69e0c44b18a57ab2a87644234daebae40000000000000000000000000000000000000000000000000003adf56470bbe0",
          "blockHash": "0xd687b3907e0a4efc5761a212e9b594b01699120b6a1e12ad4ab5c95e5046efa0",
          "blockNumber": "0x18b9161",
          "transactionHash": "0xcc1237c4f06cd1db9a3136a2ed7bc7f31df2e5d1b4a7a740cb68016f34b89a0b",
          "transactionIndex": "0x84",
          "logIndex": "0x11e",
          "removed": false
        },
        {
          "address": "0xb5320b0b3a13cc860893e2bd79fcd7e13484dda2",
          "topics": [
            "0x07ea52d82345d6e838192107d8fd7123d9c2ec8e916cd0aad13fd2b60db24644"
          ],
          "data": "0x0000000000000000000000000000000000000000000000000000000000000060000000000000000000000000000000000000000000000000000000000000010000000000000000000000000000000000000000000000000000000000000001200000000000000000000000000000000000000000000000000000000000000004000000000000000000000000133e9fb2d339d8428476a714b1113b024343811e0000000000000000000000009e059a54699a285714207b43b055483e78faac25000000000000000000000000cd37ca043f8479064e10635020c65ffc005d36f6000000000000000000000000d56e4eab23cb81f43168f9f45211eb027b9ac7cc00000000000000000000000000000000000000000000000000000000000000000000000000000000000000000000000000000000000000000000000000000004000000000000000000000000000000000000000000000000000113717d26fcc600000000000000000000000000000000000000000000000000010bd63ccb93f900000000000000000000000000000000000000000000000000010a2583d3b59300000000000000000000000000000000000000000000000000010bd63ccb93f9",
          "blockHash": "0xd687b3907e0a4efc5761a212e9b594b01699120b6a1e12ad4ab5c95e5046efa0",
          "blockNumber": "0x18b9161",
          "transactionHash": "0xcc1237c4f06cd1db9a3136a2ed7bc7f31df2e5d1b4a7a740cb68016f34b89a0b",
          "transactionIndex": "0x84",
          "logIndex": "0x11f",
          "removed": false
        },
        {
          "address": "0x1a44076050125825900e736c501f859c50fe728c",
          "topics": [
            "0x1ab700d4ced0c005b164c0f789fd09fcbb0156d4c2041b8a3bfbcd961cd1567f"
          ],
          "data": "0x00000000000000000000000000000000000000000000000000000000000000600000000000000000000000000000000000000000000000000000000000000120000000000000000000000000b5320b0b3a13cc860893e2bd79fcd7e13484dda20000000000000000000000000000000000000000000000000000000000000099010000000000000001000075e80000000000000000000000002b11834ed1feaed4b4b3a86a6f571315e25a884d000075950000000000000000000000002b11834ed1feaed4b4b3a86a6f571315e25a884d0cb96e1d1eb5a34197404b087347cac11ad11efb07211d0595fae0b05db9c65f00000000000000000000000084db3d1de9a43aa144c21b248ad31a1c83d8334d00000000000f424000000000000000000000000000000000000000000000000000000000000000000000000000001600030100110100000000000000000000000000030d4000000000000000000000",
          "blockHash": "0xd687b3907e0a4efc5761a212e9b594b01699120b6a1e12ad4ab5c95e5046efa0",
          "blockNumber": "0x18b9161",
          "transactionHash": "0xcc1237c4f06cd1db9a3136a2ed7bc7f31df2e5d1b4a7a740cb68016f34b89a0b",
          "transactionIndex": "0x84",
          "logIndex": "0x120",
          "removed": false
        },
        {
          "address": "0x2b11834ed1feaed4b4b3a86a6f571315e25a884d",
          "topics": [
            "0xfff873bb909b73d08a8c1af4b21779e87103bb8ea8cf3b3a0067eb8526b8b80a",
            "0x0cb96e1d1eb5a34197404b087347cac11ad11efb07211d0595fae0b05db9c65f",
            "0x00000000000000000000000084db3d1de9a43aa144c21b248ad31a1c83d8334d"
          ],
          "data": "0x00000000000000000000000000000000000000000000000000000000000075950000000000000000000000000000000000000000000000000de0b6b3a7640000",
          "blockHash": "0xd687b3907e0a4efc5761a212e9b594b01699120b6a1e12ad4ab5c95e5046efa0",
          "blockNumber": "0x18b9161",
          "transactionHash": "0xcc1237c4f06cd1db9a3136a2ed7bc7f31df2e5d1b4a7a740cb68016f34b89a0b",
          "transactionIndex": "0x84",
          "logIndex": "0x121",
          "removed": false
        }
      ],
      "logsBloom": "0x4000000000000000000000000000000000000000000000003000000000100000000000000000000000000000008008000000000000200000001000000080000000000000000000000000040800000000000000000000000000000000000000010000000002000000c000000000000800000000000010000000000010000000000000000000000000000000080000000000000000000000000004000000000000000000008000000000100000020000000000000000400000000440000000000000000002000000000000000000000000000000000000000000000000000020000000040000000000000000020000002000008000010000000000000000000000",
      "type": "0x2",
      "transactionHash": "0xcc1237c4f06cd1db9a3136a2ed7bc7f31df2e5d1b4a7a740cb68016f34b89a0b",
      "transactionIndex": "0x84",
      "blockHash": "0xd687b3907e0a4efc5761a212e9b594b01699120b6a1e12ad4ab5c95e5046efa0",
      "blockNumber": "0x18b9161",
      "gasUsed": "0x551b2",
      "effectiveGasPrice": "0x3d594c",
      "from": "0x84db3d1de9a43aa144c21b248ad31a1c83d8334d",
      "to": "0x2b11834ed1feaed4b4b3a86a6f571315e25a884d",
      "contractAddress": null,
      "l1BaseFeeScalar": "0x8dd",
      "l1BlobBaseFee": "0x6a83078",
      "l1BlobBaseFeeScalar": "0x101c12",
      "l1Fee": "0x6d2a70d52",
      "l1GasPrice": "0x908dd473",
      "l1GasUsed": "0x8e4"
    }
  ],
  "libraries": [],
  "pending": [],
  "returns": {},
  "timestamp": 1738637222,
  "chain": 8453,
  "commit": "abe79db"
}