{
  "transactions": [
    {
      "hash": "0x1390b4387a26bee88a2821f8b36e29feb444d88ccff6d8c0bc75d4cf972548c7",
      "transactionType": "CALL",
      "contractName": "MocaToken",
      "contractAddress": "0xf944e35f95e819e752f3ccb5faf40957d311e8c5",
      "function": "transfer(address,uint256)",
      "arguments": [
        "0x1dB823a15eB4Ad259A8fcEaE3826d89AAaEd33a3",
        "10000000000000000000"
      ],
      "transaction": {
        "from": "0x84db3d1de9a43aa144c21b248ad31a1c83d8334d",
        "to": "0xf944e35f95e819e752f3ccb5faf40957d311e8c5",
        "gas": "0xa079",
        "value": "0x0",
        "input": "0xa9059cbb0000000000000000000000001db823a15eb4ad259a8fceae3826d89aaaed33a30000000000000000000000000000000000000000000000008ac7230489e80000",
        "nonce": "0x18",
        "chainId": "0x1"
      },
      "additionalContracts": [],
      "isFixedGasLimit": false
    }
  ],
  "receipts": [
    {
      "status": "0x1",
      "cumulativeGasUsed": "0x87cb47",
      "logs": [
        {
          "address": "0xf944e35f95e819e752f3ccb5faf40957d311e8c5",
          "topics": [
            "0xddf252ad1be2c89b69c2b068fc378daa952ba7f163c4a11628f55a4df523b3ef",
            "0x00000000000000000000000084db3d1de9a43aa144c21b248ad31a1c83d8334d",
            "0x0000000000000000000000001db823a15eb4ad259a8fceae3826d89aaaed33a3"
          ],
          "data": "0x0000000000000000000000000000000000000000000000008ac7230489e80000",
          "blockHash": "0x42d4000b021f6ed90f8f10c52b5c653ac54ade158c63c33afd51c87d52f9b293",
          "blockNumber": "0x14c4c5c",
          "transactionHash": "0x1390b4387a26bee88a2821f8b36e29feb444d88ccff6d8c0bc75d4cf972548c7",
          "transactionIndex": "0x4f",
          "logIndex": "0xfa",
          "removed": false
        }
      ],
      "logsBloom": "0x40000000000000000000000000000000000000000000000000000000000000000000000000000000000000000000040000000000000000000000000000800000000000000000000000000008000000000000000000000000000000000000000000000000000000000000000000000000000000000000000000000010000000000000000000000000000000200000000000000000000000000000000000000000000000000000000000200000000000000000000000000000000000000000010000000002000000000080000000000000000000000000000000000000000000000000000000000000000000020000000040000000000000000000000000000000",
      "type": "0x2",
      "transactionHash": "0x1390b4387a26bee88a2821f8b36e29feb444d88ccff6d8c0bc75d4cf972548c7",
      "transactionIndex": "0x4f",
      "blockHash": "0x42d4000b021f6ed90f8f10c52b5c653ac54ade158c63c33afd51c87d52f9b293",
      "blockNumber": "0x14c4c5c",
      "gasUsed": "0x742f",
      "effectiveGasPrice": "0x7d12b7f4",
      "from": "0x84db3d1de9a43aa144c21b248ad31a1c83d8334d",
      "to": "0xf944e35f95e819e752f3ccb5faf40957d311e8c5",
      "contractAddress": null
    }
  ],
  "libraries": [],
  "pending": [],
  "returns": {},
  "timestamp": 1738724762,
  "chain": 1,
  "commit": "504663b"
}