{
  "transactions": [
    {
      "hash": "0x890b58a035fb7a59eec11cf1be578b54a273087939b3413625117b70c2c7ba67",
      "transactionType": "CALL",
      "contractName": null,
      "contractAddress": "0x2b11834ed1feaed4b4b3a86a6f571315e25a884d",
      "function": "send((uint32,bytes32,uint256,uint256,bytes,bytes,bytes),(uint256,uint256),address)",
      "arguments": [
        "(30184, 0x00000000000000000000000084db3d1de9a43aa144c21b248ad31a1c83d8334d, 1000000000000000000, 1000000000000000000, 0x, 0x, 0x)",
        "(32301771736697, 0)",
        "0x0000000000000000000000000000000000000000"
      ],
      "transaction": {
        "from": "0x84db3d1de9a43aa144c21b248ad31a1c83d8334d",
        "to": "0x2b11834ed1feaed4b4b3a86a6f571315e25a884d",
        "gas": "0x7f70f",
        "value": "0x1d60d7a14679",
        "input": "0xc7c7f5b3000000000000000000000000000000000000000000000000000000000000008000000000000000000000000000000000000000000000000000001d60d7a146790000000000000000000000000000000000000000000000000000000000000000000000000000000000000000000000000000000000000000000000000000000000000000000000000000000000000000000000000000000000000000000075e800000000000000000000000084db3d1de9a43aa144c21b248ad31a1c83d8334d0000000000000000000000000000000000000000000000000de0b6b3a76400000000000000000000000000000000000000000000000000000de0b6b3a764000000000000000000000000000000000000000000000000000000000000000000e000000000000000000000000000000000000000000000000000000000000001000000000000000000000000000000000000000000000000000000000000000120000000000000000000000000000000000000000000000000000000000000000000000000000000000000000000000000000000000000000000000000000000000000000000000000000000000000000000000000000000000000000000000000",
        "nonce": "0x29",
        "chainId": "0x1"
      },
      "additionalContracts": [],
      "isFixedGasLimit": false
    }
  ],
  "receipts": [
    {
      "type": "0x2",
      "status": "0x1",
      "cumulativeGasUsed": "0x10ff26a",
      "logs": [
        {
          "address": "0xf944e35f95e819e752f3ccb5faf40957d311e8c5",
          "topics": [
            "0xddf252ad1be2c89b69c2b068fc378daa952ba7f163c4a11628f55a4df523b3ef",
            "0x00000000000000000000000084db3d1de9a43aa144c21b248ad31a1c83d8334d",
            "0x0000000000000000000000002b11834ed1feaed4b4b3a86a6f571315e25a884d"
          ],
          "data": "0x0000000000000000000000000000000000000000000000000de0b6b3a7640000",
          "blockHash": "0xc08bae74f339b31e5b101d1cf414bbe28193365492be200616c5f46a2fa02026",
          "blockNumber": "0x1804d9b",
          "blockTimestamp": "0x6a16b56b",
          "transactionHash": "0x890b58a035fb7a59eec11cf1be578b54a273087939b3413625117b70c2c7ba67",
          "transactionIndex": "0xaf",
          "logIndex": "0x1ed",
          "removed": false
        },
        {
          "address": "0xbb2ea70c9e858123480642cf96acbcce1372dce1",
          "topics": [
            "0x61ed099e74a97a1d7f8bb0952a88ca8b7b8ebd00c126ea04671f92a81213318a"
          ],
          "data": "0x000000000000000000000000173272739bd7aa6e4e214714048a9fe6994530590000000000000000000000000000000000000000000000000000194cfabcc388",
          "blockHash": "0xc08bae74f339b31e5b101d1cf414bbe28193365492be200616c5f46a2fa02026",
          "blockNumber": "0x1804d9b",
          "blockTimestamp": "0x6a16b56b",
          "transactionHash": "0x890b58a035fb7a59eec11cf1be578b54a273087939b3413625117b70c2c7ba67",
          "transactionIndex": "0xaf",
          "logIndex": "0x1ee",
          "removed": false
        },
        {
          "address": "0xbb2ea70c9e858123480642cf96acbcce1372dce1",
          "topics": [
            "0x07ea52d82345d6e838192107d8fd7123d9c2ec8e916cd0aad13fd2b60db24644"
          ],
          "data": "0x0000000000000000000000000000000000000000000000000000000000000060000000000000000000000000000000000000000000000000000000000000010000000000000000000000000000000000000000000000000000000000000001200000000000000000000000000000000000000000000000000000000000000004000000000000000000000000a4fe5a5b9a846458a70cd0748228aed3bf65c2cd000000000000000000000000a59ba433ac34d2927232918ef5b2eaafcf130ba5000000000000000000000000c9ca319f6da263910fd9b037ec3d817a814ef3d8000000000000000000000000d56e4eab23cb81f43168f9f45211eb027b9ac7cc00000000000000000000000000000000000000000000000000000000000000000000000000000000000000000000000000000000000000000000000000000004000000000000000000000000000000000000000000000000000001080b6fb256000000000000000000000000000000000000000000000000000000fd44b0b4bc0000000000000000000000000000000000000000000000000000010e33dcd5890000000000000000000000000000000000000000000000000000010058e74656",
          "blockHash": "0xc08bae74f339b31e5b101d1cf414bbe28193365492be200616c5f46a2fa02026",
          "blockNumber": "0x1804d9b",
          "blockTimestamp": "0x6a16b56b",
          "transactionHash": "0x890b58a035fb7a59eec11cf1be578b54a273087939b3413625117b70c2c7ba67",
          "transactionIndex": "0xaf",
          "logIndex": "0x1ef",
          "removed": false
        },
        {
          "address": "0x1a44076050125825900e736c501f859c50fe728c",
          "topics": [
            "0x1ab700d4ced0c005b164c0f789fd09fcbb0156d4c2041b8a3bfbcd961cd1567f"
          ],
          "data": "0x00000000000000000000000000000000000000000000000000000000000000600000000000000000000000000000000000000000000000000000000000000120000000000000000000000000bb2ea70c9e858123480642cf96acbcce1372dce10000000000000000000000000000000000000000000000000000000000000099010000000000000333000075950000000000000000000000002b11834ed1feaed4b4b3a86a6f571315e25a884d000075e80000000000000000000000002b11834ed1feaed4b4b3a86a6f571315e25a884dce7d9682e939cfd0c001ba58b8f6924760ddd3cfc6046b3b8f116a92a4c5774500000000000000000000000084db3d1de9a43aa144c21b248ad31a1c83d8334d00000000000f424000000000000000000000000000000000000000000000000000000000000000000000000000001600030100110100000000000000000000000000030d4000000000000000000000",
          "blockHash": "0xc08bae74f339b31e5b101d1cf414bbe28193365492be200616c5f46a2fa02026",
          "blockNumber": "0x1804d9b",
          "blockTimestamp": "0x6a16b56b",
          "transactionHash": "0x890b58a035fb7a59eec11cf1be578b54a273087939b3413625117b70c2c7ba67",
          "transactionIndex": "0xaf",
          "logIndex": "0x1f0",
          "removed": false
        },
        {
          "address": "0x2b11834ed1feaed4b4b3a86a6f571315e25a884d",
          "topics": [
            "0xfff873bb909b73d08a8c1af4b21779e87103bb8ea8cf3b3a0067eb8526b8b80a",
            "0xce7d9682e939cfd0c001ba58b8f6924760ddd3cfc6046b3b8f116a92a4c57745",
            "0x00000000000000000000000084db3d1de9a43aa144c21b248ad31a1c83d8334d"
          ],
          "data": "0x00000000000000000000000000000000000000000000000000000000000075e80000000000000000000000000000000000000000000000000de0b6b3a7640000",
          "blockHash": "0xc08bae74f339b31e5b101d1cf414bbe28193365492be200616c5f46a2fa02026",
          "blockNumber": "0x1804d9b",
          "blockTimestamp": "0x6a16b56b",
          "transactionHash": "0x890b58a035fb7a59eec11cf1be578b54a273087939b3413625117b70c2c7ba67",
          "transactionIndex": "0xaf",
          "logIndex": "0x1f1",
          "removed": false
        }
      ],
      "logsBloom": "0x40000000000000000000000000000000000001000000000030000000001000000400000000000000000000000080080000000000002000000000000000800000000000000000000000000008000000000000200000000000080000000000000000000000000000008010000000000000000000000010000000000010000000000000000000000000001000080000000000000000000000000000000000000000800000008000000000300000020000000000000000410000000440000000000000000002000000000080000000000000000000000000000000000000000000000000040000000000000000020000002040000000010000000000000000000000",
      "transactionHash": "0x890b58a035fb7a59eec11cf1be578b54a273087939b3413625117b70c2c7ba67",
      "transactionIndex": "0xaf",
      "blockHash": "0xc08bae74f339b31e5b101d1cf414bbe28193365492be200616c5f46a2fa02026",
      "blockNumber": "0x1804d9b",
      "gasUsed": "0x5723b",
      "effectiveGasPrice": "0x961fc66",
      "from": "0x84db3d1de9a43aa144c21b248ad31a1c83d8334d",
      "to": "0x2b11834ed1feaed4b4b3a86a6f571315e25a884d",
      "contractAddress": null
    }
  ],
  "libraries": [],
  "pending": [],
  "returns": {},
  "timestamp": 1779873132802,
  "chain": 1,
  "commit": "f2529e9"
}