{
  "transactions": [
    {
      "hash": "0xb38d71e78f3257517615c7f2da30f12513b8b5881aa83a4f4c5caa6c0dc17a11",
      "transactionType": "CALL",
      "contractName": null,
      "contractAddress": "0x1a44076050125825900e736c501f859c50fe728c",
      "function": "setSendLibrary(address,uint32,address)",
      "arguments": [
        "0x2B11834Ed1FeAEd4b4b3a86A6F571315E25A884D",
        "30184",
        "0xbB2Ea70C9E858123480642Cf96acbcCE1372dCe1"
      ],
      "transaction": {
        "from": "0x84db3d1de9a43aa144c21b248ad31a1c83d8334d",
        "to": "0x1a44076050125825900e736c501f859c50fe728c",
        "gas": "0x1378b",
        "value": "0x0",
        "input": "0x9535ff300000000000000000000000002b11834ed1feaed4b4b3a86a6f571315e25a884d00000000000000000000000000000000000000000000000000000000000075e8000000000000000000000000bb2ea70c9e858123480642cf96acbcce1372dce1",
        "nonce": "0x23",
        "chainId": "0x1"
      },
      "additionalContracts": [],
      "isFixedGasLimit": false
    },
    {
      "hash": "0xabf1661904f33bb35c41a46601e8fe59a0232943a4277da65e14466ab61255ca",
      "transactionType": "CALL",
      "contractName": null,
      "contractAddress": "0x1a44076050125825900e736c501f859c50fe728c",
      "function": "setReceiveLibrary(address,uint32,address,uint256)",
      "arguments": [
        "0x2B11834Ed1FeAEd4b4b3a86A6F571315E25A884D",
        "30184",
        "0xc02Ab410f0734EFa3F14628780e6e695156024C2",
        "0"
      ],
      "transaction": {
        "from": "0x84db3d1de9a43aa144c21b248ad31a1c83d8334d",
        "to": "0x1a44076050125825900e736c501f859c50fe728c",
        "gas": "0x17001",
        "value": "0x0",
        "input": "0x6a14d7150000000000000000000000002b11834ed1feaed4b4b3a86a6f571315e25a884d00000000000000000000000000000000000000000000000000000000000075e8000000000000000000000000c02ab410f0734efa3f14628780e6e695156024c20000000000000000000000000000000000000000000000000000000000000000",
        "nonce": "0x24",
        "chainId": "0x1"
      },
      "additionalContracts": [],
      "isFixedGasLimit": false
    }
  ],
  "receipts": [
    {
      "type": "0x2",
      "status": "0x1",
      "cumulativeGasUsed": "0x2139031",
      "logs": [
        {
          "address": "0x1a44076050125825900e736c501f859c50fe728c",
          "topics": [
            "0x4cff966ebee29a156dcb34cf72c1d06231fb1777f6bdf6e8089819232f002b1c"
          ],
          "data": "0x0000000000000000000000002b11834ed1feaed4b4b3a86a6f571315e25a884d00000000000000000000000000000000000000000000000000000000000075e8000000000000000000000000bb2ea70c9e858123480642cf96acbcce1372dce1",
          "blockHash": "0x2b48b59a52fd71981bccd6b095044cfc9b979fa378200ce8c3fa0ca8640a3b14",
          "blockNumber": "0x1804d17",
          "blockTimestamp": "0x6a16af3b",
          "transactionHash": "0xb38d71e78f3257517615c7f2da30f12513b8b5881aa83a4f4c5caa6c0dc17a11",
          "transactionIndex": "0x8f",
          "logIndex": "0x363",
          "removed": false
        }
      ],
      "logsBloom": "0x00000000000000000000000000000000000200000000000000000000001000000000000000000000000000000000000000000000000000000000000001000000000000000000000000000000000000000000000000000000000000000000000000000000000000000000000000000000000000000010000000000000000000000000000000000000000000000000000000000000000000000000000000000000000000000000000000000000000000000000000000000000000000000000000000000000000000000000000000000000000000000000000000000000000000000040000000000000000000000000000000000000010000000000000000000000",
      "transactionHash": "0xb38d71e78f3257517615c7f2da30f12513b8b5881aa83a4f4c5caa6c0dc17a11",
      "transactionIndex": "0x8f",
      "blockHash": "0x2b48b59a52fd71981bccd6b095044cfc9b979fa378200ce8c3fa0ca8640a3b14",
      "blockNumber": "0x1804d17",
      "gasUsed": "0xe18e",
      "effectiveGasPrice": "0x9ba6f52",
      "from": "0x84db3d1de9a43aa144c21b248ad31a1c83d8334d",
      "to": "0x1a44076050125825900e736c501f859c50fe728c",
      "contractAddress": null
    },
    {
      "type": "0x2",
      "status": "0x1",
      "cumulativeGasUsed": "0x151688a",
      "logs": [
        {
          "address": "0x1a44076050125825900e736c501f859c50fe728c",
          "topics": [
            "0xcd6f92f5ac6185a5acfa02c92090746cec64d777269cbcd0ed031e396657a1c2"
          ],
          "data": "0x0000000000000000000000002b11834ed1feaed4b4b3a86a6f571315e25a884d00000000000000000000000000000000000000000000000000000000000075e8000000000000000000000000c02ab410f0734efa3f14628780e6e695156024c2",
          "blockHash": "0x62fc79b82d76c721f127dc36320e539890e180519b0eaf591c1c6075a5843d3e",
          "blockNumber": "0x1804d1a",
          "blockTimestamp": "0x6a16af5f",
          "transactionHash": "0xabf1661904f33bb35c41a46601e8fe59a0232943a4277da65e14466ab61255ca",
          "transactionIndex": "0x9d",
          "logIndex": "0x2f9",
          "removed": false
        },
        {
          "address": "0x1a44076050125825900e736c501f859c50fe728c",
          "topics": [
            "0x4e0a5bbfa0c11a64effb1ada324b5437a17272e1aed9320398715ef71bb20928"
          ],
          "data": "0x0000000000000000000000002b11834ed1feaed4b4b3a86a6f571315e25a884d00000000000000000000000000000000000000000000000000000000000075e800000000000000000000000000000000000000000000000000000000000000000000000000000000000000000000000000000000000000000000000000000000",
          "blockHash": "0x62fc79b82d76c721f127dc36320e539890e180519b0eaf591c1c6075a5843d3e",
          "blockNumber": "0x1804d1a",
          "blockTimestamp": "0x6a16af5f",
          "transactionHash": "0xabf1661904f33bb35c41a46601e8fe59a0232943a4277da65e14466ab61255ca",
          "transactionIndex": "0x9d",
          "logIndex": "0x2fa",
          "removed": false
        }
      ],
      "logsBloom": "0x00000000000000000000020800000000000000000000000000000000001000020400000000000000000000000000000000000000000000000000000000000000000000000000000000000000000000000000000000800000000000000000000000000000000000000000000000000000000000000010000000000000000000100000000000000000000000000000000000000000000000000000000000000000000000000000000000000000000000000000000000000000000000000000000000000000000000000000000000000000000000000000000000000000000000000000000000000000000000000000000000000000010000000000000000000000",
      "transactionHash": "0xabf1661904f33bb35c41a46601e8fe59a0232943a4277da65e14466ab61255ca",
      "transactionIndex": "0x9d",
      "blockHash": "0x62fc79b82d76c721f127dc36320e539890e180519b0eaf591c1c6075a5843d3e",
      "blockNumber": "0x1804d1a",
      "gasUsed": "0xfba1",
      "effectiveGasPrice": "0x9bc69e5",
      "from": "0x84db3d1de9a43aa144c21b248ad31a1c83d8334d",
      "to": "0x1a44076050125825900e736c501f859c50fe728c",
      "contractAddress": null
    }
  ],
  "libraries": [],
  "pending": [],
  "returns": {},
  "timestamp": 1779871585483,
  "chain": 1,
  "commit": "f2529e9"
}