{
  "transactions": [
    {
      "hash": "0xb667ac25f51b8d9fa7154a88a123ab27ec651589daf7ca952304449b8b32a250",
      "transactionType": "CALL",
      "contractName": null,
      "contractAddress": "0x1a44076050125825900e736c501f859c50fe728c",
      "function": "setConfig(address,address,(uint32,uint32,bytes)[])",
      "arguments": [
        "0x2B11834Ed1FeAEd4b4b3a86A6F571315E25A884D",
        "0xc02Ab410f0734EFa3F14628780e6e695156024C2",
        "[(30184, 2, 0x0000000000000000000000000000000000000000000000000000000000000020000000000000000000000000000000000000000000000000000000000000013b00000000000000000000000000000000000000000000000000000000000000040000000000000000000000000000000000000000000000000000000000000000000000000000000000000000000000000000000000000000000000000000000000000000000000000000000000000000000000000000000000000000000000c000000000000000000000000000000000000000000000000000000000000001600000000000000000000000000000000000000000000000000000000000000004000000000000000000000000554833698ae0fb22ecc90b01222903fd62ca4b47000000000000000000000000a59ba433ac34d2927232918ef5b2eaafcf130ba5000000000000000000000000c9ca319f6da263910fd9b037ec3d817a814ef3d8000000000000000000000000d56e4eab23cb81f43168f9f45211eb027b9ac7cc0000000000000000000000000000000000000000000000000000000000000000)]"
      ],
      "transaction": {
        "from": "0x84db3d1de9a43aa144c21b248ad31a1c83d8334d",
        "to": "0x1a44076050125825900e736c501f859c50fe728c",
        "gas": "0x17486",
        "value": "0x0",
        "input": "0x6dbd9f900000000000000000000000002b11834ed1feaed4b4b3a86a6f571315e25a884d000000000000000000000000c02ab410f0734efa3f14628780e6e695156024c200000000000000000000000000000000000000000000000000000000000000600000000000000000000000000000000000000000000000000000000000000001000000000000000000000000000000000000000000000000000000000000002000000000000000000000000000000000000000000000000000000000000075e80000000000000000000000000000000000000000000000000000000000000002000000000000000000000000000000000000000000000000000000000000006000000000000000000000000000000000000000000000000000000000000001a00000000000000000000000000000000000000000000000000000000000000020000000000000000000000000000000000000000000000000000000000000013b00000000000000000000000000000000000000000000000000000000000000040000000000000000000000000000000000000000000000000000000000000000000000000000000000000000000000000000000000000000000000000000000000000000000000000000000000000000000000000000000000000000000000c000000000000000000000000000000000000000000000000000000000000001600000000000000000000000000000000000000000000000000000000000000004000000000000000000000000554833698ae0fb22ecc90b01222903fd62ca4b47000000000000000000000000a59ba433ac34d2927232918ef5b2eaafcf130ba5000000000000000000000000c9ca319f6da263910fd9b037ec3d817a814ef3d8000000000000000000000000d56e4eab23cb81f43168f9f45211eb027b9ac7cc0000000000000000000000000000000000000000000000000000000000000000",
        "nonce": "0x26",
        "chainId": "0x1"
      },
      "additionalContracts": [],
      "isFixedGasLimit": false
    }
  ],
  "receipts": [
    {
      "type": "0x2",
      "status": "0x1",
      "cumulativeGasUsed": "0x1b1bbce",
      "logs": [
        {
          "address": "0xc02ab410f0734efa3f14628780e6e695156024c2",
          "topics": [
            "0x82118522aa536ac0e96cc5c689407ae42b89d592aa133890a01f1509842f5081"
          ],
          "data": "0x0000000000000000000000002b11834ed1feaed4b4b3a86a6f571315e25a884d00000000000000000000000000000000000000000000000000000000000075e80000000000000000000000000000000000000000000000000000000000000060000000000000000000000000000000000000000000000000000000000000013b00000000000000000000000000000000000000000000000000000000000000040000000000000000000000000000000000000000000000000000000000000000000000000000000000000000000000000000000000000000000000000000000000000000000000000000000000000000000000000000000000000000000000c000000000000000000000000000000000000000000000000000000000000001600000000000000000000000000000000000000000000000000000000000000004000000000000000000000000554833698ae0fb22ecc90b01222903fd62ca4b47000000000000000000000000a59ba433ac34d2927232918ef5b2eaafcf130ba5000000000000000000000000c9ca319f6da263910fd9b037ec3d817a814ef3d8000000000000000000000000d56e4eab23cb81f43168f9f45211eb027b9ac7cc0000000000000000000000000000000000000000000000000000000000000000",
          "blockHash": "0xf659a12bf2c00c095fe5c70ad73179c9ad7bb0a118034b37a084e664a268270e",
          "blockNumber": "0x1804d22",
          "blockTimestamp": "0x6a16afbf",
          "transactionHash": "0xb667ac25f51b8d9fa7154a88a123ab27ec651589daf7ca952304449b8b32a250",
          "transactionIndex": "0xb6",
          "logIndex": "0x364",
          "removed": false
        }
      ],
      "logsBloom": "0x00000000000000000000000000000000000000000000000000000000000000000000000000000004000000000000000000000000000000000000000000000000000000000000000000000000000000000000000000000000002000000000000000000000000000000000000000000000000000000000000000000000000000000000000100000000000010000000000000000000000000000000000000000000000000000000000000000002000000000000000000000000000000000000000000000000000000000000000000000000000000000000000000000000000000000000000000000000000000000000000000000000000000000000000000000010",
      "transactionHash": "0xb667ac25f51b8d9fa7154a88a123ab27ec651589daf7ca952304449b8b32a250",
      "transactionIndex": "0xb6",
      "blockHash": "0xf659a12bf2c00c095fe5c70ad73179c9ad7bb0a118034b37a084e664a268270e",
      "blockNumber": "0x1804d22",
      "gasUsed": "0x10db4",
      "effectiveGasPrice": "0x8d4831a",
      "from": "0x84db3d1de9a43aa144c21b248ad31a1c83d8334d",
      "to": "0x1a44076050125825900e736c501f859c50fe728c",
      "contractAddress": null
    }
  ],
  "libraries": [],
  "pending": [],
  "returns": {},
  "timestamp": 1779871681367,
  "chain": 1,
  "commit": "f2529e9"
}