{
  "transactions": [
    {
      "hash": "0xdf0316a82b0b00124ed0df45150b5bb2319729f06f5875eeaff3b44cfc5a0cfe",
      "transactionType": "CALL",
      "contractName": null,
      "contractAddress": "0x1a44076050125825900e736c501f859c50fe728c",
      "function": "setConfig(address,address,(uint32,uint32,bytes)[])",
      "arguments": [
        "0x2B11834Ed1FeAEd4b4b3a86A6F571315E25A884D",
        "0xbB2Ea70C9E858123480642Cf96acbcCE1372dCe1",
        "[(30184, 2, 0x0000000000000000000000000000000000000000000000000000000000000020000000000000000000000000000000000000000000000000000000000000000f00000000000000000000000000000000000000000000000000000000000000040000000000000000000000000000000000000000000000000000000000000000000000000000000000000000000000000000000000000000000000000000000000000000000000000000000000000000000000000000000000000000000000c000000000000000000000000000000000000000000000000000000000000001600000000000000000000000000000000000000000000000000000000000000004000000000000000000000000554833698ae0fb22ecc90b01222903fd62ca4b47000000000000000000000000a59ba433ac34d2927232918ef5b2eaafcf130ba5000000000000000000000000c9ca319f6da263910fd9b037ec3d817a814ef3d8000000000000000000000000d56e4eab23cb81f43168f9f45211eb027b9ac7cc0000000000000000000000000000000000000000000000000000000000000000)]"
      ],
      "transaction": {
        "from": "0x84db3d1de9a43aa144c21b248ad31a1c83d8334d",
        "to": "0x1a44076050125825900e736c501f859c50fe728c",
        "gas": "0x175c1",
        "value": "0x0",
        "input": "0x6dbd9f900000000000000000000000002b11834ed1feaed4b4b3a86a6f571315e25a884d000000000000000000000000bb2ea70c9e858123480642cf96acbcce1372dce100000000000000000000000000000000000000000000000000000000000000600000000000000000000000000000000000000000000000000000000000000001000000000000000000000000000000000000000000000000000000000000002000000000000000000000000000000000000000000000000000000000000075e80000000000000000000000000000000000000000000000000000000000000002000000000000000000000000000000000000000000000000000000000000006000000000000000000000000000000000000000000000000000000000000001a00000000000000000000000000000000000000000000000000000000000000020000000000000000000000000000000000000000000000000000000000000000f00000000000000000000000000000000000000000000000000000000000000040000000000000000000000000000000000000000000000000000000000000000000000000000000000000000000000000000000000000000000000000000000000000000000000000000000000000000000000000000000000000000000000c000000000000000000000000000000000000000000000000000000000000001600000000000000000000000000000000000000000000000000000000000000004000000000000000000000000554833698ae0fb22ecc90b01222903fd62ca4b47000000000000000000000000a59ba433ac34d2927232918ef5b2eaafcf130ba5000000000000000000000000c9ca319f6da263910fd9b037ec3d817a814ef3d8000000000000000000000000d56e4eab23cb81f43168f9f45211eb027b9ac7cc0000000000000000000000000000000000000000000000000000000000000000",
        "nonce": "0x25",
        "chainId": "0x1"
      },
      "additionalContracts": [],
      "isFixedGasLimit": false
    }
  ],
  "receipts": [
    {
      "type": "0x2",
      "status": "0x1",
      "cumulativeGasUsed": "0x1465cae",
      "logs": [
        {
          "address": "0xbb2ea70c9e858123480642cf96acbcce1372dce1",
          "topics": [
            "0x82118522aa536ac0e96cc5c689407ae42b89d592aa133890a01f1509842f5081"
          ],
          "data": "0x0000000000000000000000002b11834ed1feaed4b4b3a86a6f571315e25a884d00000000000000000000000000000000000000000000000000000000000075e80000000000000000000000000000000000000000000000000000000000000060000000000000000000000000000000000000000000000000000000000000000f00000000000000000000000000000000000000000000000000000000000000040000000000000000000000000000000000000000000000000000000000000000000000000000000000000000000000000000000000000000000000000000000000000000000000000000000000000000000000000000000000000000000000c000000000000000000000000000000000000000000000000000000000000001600000000000000000000000000000000000000000000000000000000000000004000000000000000000000000554833698ae0fb22ecc90b01222903fd62ca4b47000000000000000000000000a59ba433ac34d2927232918ef5b2eaafcf130ba5000000000000000000000000c9ca319f6da263910fd9b037ec3d817a814ef3d8000000000000000000000000d56e4eab23cb81f43168f9f45211eb027b9ac7cc0000000000000000000000000000000000000000000000000000000000000000",
          "blockHash": "0x2753440dd27e370b8f8b9b2ff403c0e4e40363068fc4f745aa8967aa05c9b688",
          "blockNumber": "0x1804d20",
          "blockTimestamp": "0x6a16afa7",
          "transactionHash": "0xdf0316a82b0b00124ed0df45150b5bb2319729f06f5875eeaff3b44cfc5a0cfe",
          "transactionIndex": "0x97",
          "logIndex": "0x27f",
          "removed": false
        }
      ],
      "logsBloom": "0x00000000000000000000000000000000000000000000000000000000000000000400000000000000000000000000000000000000000000000000000000000000000000000000000000000000000000000000200000000000002000000000000000000000000000000000000000000000000000000000000000000000000000000000000000000000001000000000000000000000000000000000000000000000000000000000000000000002000000000000000000000000000000000000000000000000000000000000000000000000000000000000000000000000000000000000000000000000000000000000000000000000000000000000000000000010",
      "transactionHash": "0xdf0316a82b0b00124ed0df45150b5bb2319729f06f5875eeaff3b44cfc5a0cfe",
      "transactionIndex": "0x97",
      "blockHash": "0x2753440dd27e370b8f8b9b2ff403c0e4e40363068fc4f745aa8967aa05c9b688",
      "blockNumber": "0x1804d20",
      "gasUsed": "0x10e98",
      "effectiveGasPrice": "0x9aefb17",
      "from": "0x84db3d1de9a43aa144c21b248ad31a1c83d8334d",
      "to": "0x1a44076050125825900e736c501f859c50fe728c",
      "contractAddress": null
    }
  ],
  "libraries": [],
  "pending": [],
  "returns": {},
  "timestamp": 1779871658705,
  "chain": 1,
  "commit": "f2529e9"
}