{
  "transactions": [
    {
      "hash": "0x968e35fe06e601f3f7c33dfad7456fadf12d214a4507baef0727e440ca3cc172",
      "transactionType": "CALL",
      "contractName": "MocaOFT",
      "contractAddress": "0x2b11834ed1feaed4b4b3a86a6f571315e25a884d",
      "function": "send((uint32,bytes32,uint256,uint256,bytes,bytes,bytes),(uint256,uint256),address)",
      "arguments": [
        "(30101, 0x00000000000000000000000084db3d1de9a43aa144c21b248ad31a1c83d8334d, 1000000000000000000, 1000000000000000000, 0x, 0x, 0x)",
        "(399110216042850, 0)",
        "0x0000000000000000000000000000000000000000"
      ],
      "transaction": {
        "from": "0x84db3d1de9a43aa144c21b248ad31a1c83d8334d",
        "to": "0x2b11834ed1feaed4b4b3a86a6f571315e25a884d",
        "gas": "0x7d97c",
        "value": "0x16afd16a74962",
        "input": "0xc7c7f5b3000000000000000000000000000000000000000000000000000000000000008000000000000000000000000000000000000000000000000000016afd16a7496200000000000000000000000000000000000000000000000000000000000000000000000000000000000000000000000000000000000000000000000000000000000000000000000000000000000000000000000000000000000000000000759500000000000000000000000084db3d1de9a43aa144c21b248ad31a1c83d8334d0000000000000000000000000000000000000000000000000de0b6b3a76400000000000000000000000000000000000000000000000000000de0b6b3a764000000000000000000000000000000000000000000000000000000000000000000e000000000000000000000000000000000000000000000000000000000000001000000000000000000000000000000000000000000000000000000000000000120000000000000000000000000000000000000000000000000000000000000000000000000000000000000000000000000000000000000000000000000000000000000000000000000000000000000000000000000000000000000000000000000",
        "nonce": "0x1d",
        "chainId": "0x2105"
      },
      "additionalContracts": [],
      "isFixedGasLimit": false
    }
  ],
  "receipts": [
    {
      "type": "0x2",
      "status": "0x1",
      "cumulativeGasUsed": "0x6179ed",
      "logs": [
        {
          "address": "0x2b11834ed1feaed4b4b3a86a6f571315e25a884d",
          "topics": [
            "0xddf252ad1be2c89b69c2b068fc378daa952ba7f163c4a11628f55a4df523b3ef",
            "0x00000000000000000000000084db3d1de9a43aa144c21b248ad31a1c83d8334d",
            "0x0000000000000000000000000000000000000000000000000000000000000000"
          ],
          "data": "0x0000000000000000000000000000000000000000000000000de0b6b3a7640000",
          "blockHash": "0x0000000000000000000000000000000000000000000000000000000000000000",
          "blockNumber": "0x2c62a8f",
          "blockTimestamp": "0x6a16b201",
          "transactionHash": "0x968e35fe06e601f3f7c33dfad7456fadf12d214a4507baef0727e440ca3cc172",
          "transactionIndex": "0x2b",
          "logIndex": "0x96",
          "removed": false
        },
        {
          "address": "0xb5320b0b3a13cc860893e2bd79fcd7e13484dda2",
          "topics": [
            "0x61ed099e74a97a1d7f8bb0952a88ca8b7b8ebd00c126ea04671f92a81213318a"
          ],
          "data": "0x0000000000000000000000002cca08ae69e0c44b18a57ab2a87644234daebae400000000000000000000000000000000000000000000000000012c0d18af5daa",
          "blockHash": "0x0000000000000000000000000000000000000000000000000000000000000000",
          "blockNumber": "0x2c62a8f",
          "blockTimestamp": "0x6a16b201",
          "transactionHash": "0x968e35fe06e601f3f7c33dfad7456fadf12d214a4507baef0727e440ca3cc172",
          "transactionIndex": "0x2b",
          "logIndex": "0x97",
          "removed": false
        },
        {
          "address": "0xb5320b0b3a13cc860893e2bd79fcd7e13484dda2",
          "topics": [
            "0x07ea52d82345d6e838192107d8fd7123d9c2ec8e916cd0aad13fd2b60db24644"
          ],
          "data": "0x0000000000000000000000000000000000000000000000000000000000000060000000000000000000000000000000000000000000000000000000000000010000000000000000000000000000000000000000000000000000000000000001200000000000000000000000000000000000000000000000000000000000000004000000000000000000000000133e9fb2d339d8428476a714b1113b024343811e000000000000000000000000554833698ae0fb22ecc90b01222903fd62ca4b47000000000000000000000000cd37ca043f8479064e10635020c65ffc005d36f6000000000000000000000000d56e4eab23cb81f43168f9f45211eb027b9ac7cc000000000000000000000000000000000000000000000000000000000000000000000000000000000000000000000000000000000000000000000000000000040000000000000000000000000000000000000000000000000000102a0796985400000000000000000000000000000000000000000000000000000fe0acdb84bb00000000000000000000000000000000000000000000000000000f604e14226e00000000000000000000000000000000000000000000000000000f84fb71ac3b",
          "blockHash": "0x0000000000000000000000000000000000000000000000000000000000000000",
          "blockNumber": "0x2c62a8f",
          "blockTimestamp": "0x6a16b201",
          "transactionHash": "0x968e35fe06e601f3f7c33dfad7456fadf12d214a4507baef0727e440ca3cc172",
          "transactionIndex": "0x2b",
          "logIndex": "0x98",
          "removed": false
        },
        {
          "address": "0x1a44076050125825900e736c501f859c50fe728c",
          "topics": [
            "0x1ab700d4ced0c005b164c0f789fd09fcbb0156d4c2041b8a3bfbcd961cd1567f"
          ],
          "data": "0x00000000000000000000000000000000000000000000000000000000000000600000000000000000000000000000000000000000000000000000000000000120000000000000000000000000b5320b0b3a13cc860893e2bd79fcd7e13484dda2000000000000000000000000000000000000000000000000000000000000009901000000000000027e000075e80000000000000000000000002b11834ed1feaed4b4b3a86a6f571315e25a884d000075950000000000000000000000002b11834ed1feaed4b4b3a86a6f571315e25a884df9975acd093d6252bfbb3415743f13ab07b34653f2efdc232b49e149e0b8d86600000000000000000000000084db3d1de9a43aa144c21b248ad31a1c83d8334d00000000000f424000000000000000000000000000000000000000000000000000000000000000000000000000001600030100110100000000000000000000000000030d4000000000000000000000",
          "blockHash": "0x0000000000000000000000000000000000000000000000000000000000000000",
          "blockNumber": "0x2c62a8f",
          "blockTimestamp": "0x6a16b201",
          "transactionHash": "0x968e35fe06e601f3f7c33dfad7456fadf12d214a4507baef0727e440ca3cc172",
          "transactionIndex": "0x2b",
          "logIndex": "0x99",
          "removed": false
        },
        {
          "address": "0x2b11834ed1feaed4b4b3a86a6f571315e25a884d",
          "topics": [
            "0xfff873bb909b73d08a8c1af4b21779e87103bb8ea8cf3b3a0067eb8526b8b80a",
            "0xf9975acd093d6252bfbb3415743f13ab07b34653f2efdc232b49e149e0b8d866",
            "0x00000000000000000000000084db3d1de9a43aa144c21b248ad31a1c83d8334d"
          ],
          "data": "0x00000000000000000000000000000000000000000000000000000000000075950000000000000000000000000000000000000000000000000de0b6b3a7640000",
          "blockHash": "0x0000000000000000000000000000000000000000000000000000000000000000",
          "blockNumber": "0x2c62a8f",
          "blockTimestamp": "0x6a16b201",
          "transactionHash": "0x968e35fe06e601f3f7c33dfad7456fadf12d214a4507baef0727e440ca3cc172",
          "transactionIndex": "0x2b",
          "logIndex": "0x9a",
          "removed": false
        }
      ],
      "logsBloom": "0xc0000000000000000000000000000000000000000000000030000000001000000000000000000000000000000080080000000000002000000000000000800000000000000000000000000408000000000000000000000000000000000000000100000000020000008000000000000800000000000010000000000010000000000000000000000000000000080000000000000000000000000004000000000000000000008000000000100000020000000000000000400000000440000000000000000002000000000000000000004000000000000000000000000000001020000000040000000000000000020000002000000000010000000000000000000000",
      "transactionHash": "0x968e35fe06e601f3f7c33dfad7456fadf12d214a4507baef0727e440ca3cc172",
      "transactionIndex": "0x2b",
      "blockHash": "0x0000000000000000000000000000000000000000000000000000000000000000",
      "blockNumber": "0x2c62a8f",
      "gasUsed": "0x55e02",
      "effectiveGasPrice": "0x5b8d80",
      "blobGasUsed": "0x50f0",
      "from": "0x84db3d1de9a43aa144c21b248ad31a1c83d8334d",
      "to": "0x2b11834ed1feaed4b4b3a86a6f571315e25a884d",
      "contractAddress": null
    }
  ],
  "libraries": [],
  "pending": [],
  "returns": {},
  "timestamp": 1779872256465,
  "chain": 8453,
  "commit": "f2529e9"
}