{
  "transactions": [
    {
      "hash": "0xc8bd50fca782f12cf303b85853dac1a4c82580a7f9b6cde826ef21a6a7a69d66",
      "transactionType": "CALL",
      "contractName": null,
      "contractAddress": "0x1a44076050125825900e736c501f859c50fe728c",
      "function": "setSendLibrary(address,uint32,address)",
      "arguments": [
        "0x2B11834Ed1FeAEd4b4b3a86A6F571315E25A884D",
        "30101",
        "0xB5320B0B3a13cC860893E2Bd79FCd7e13484Dda2"
      ],
      "transaction": {
        "from": "0x84db3d1de9a43aa144c21b248ad31a1c83d8334d",
        "to": "0x1a44076050125825900e736c501f859c50fe728c",
        "gas": "0x1378b",
        "value": "0x0",
        "input": "0x9535ff300000000000000000000000002b11834ed1feaed4b4b3a86a6f571315e25a884d0000000000000000000000000000000000000000000000000000000000007595000000000000000000000000b5320b0b3a13cc860893e2bd79fcd7e13484dda2",
        "nonce": "0x17",
        "chainId": "0x2105"
      },
      "additionalContracts": [],
      "isFixedGasLimit": false
    },
    {
      "hash": "0x6d815298b6d0575ec299902de0735fb5bfd7bd524fc2c25a27ed4355a9dbd807",
      "transactionType": "CALL",
      "contractName": null,
      "contractAddress": "0x1a44076050125825900e736c501f859c50fe728c",
      "function": "setReceiveLibrary(address,uint32,address,uint256)",
      "arguments": [
        "0x2B11834Ed1FeAEd4b4b3a86A6F571315E25A884D",
        "30101",
        "0xc70AB6f32772f59fBfc23889Caf4Ba3376C84bAf",
        "0"
      ],
      "transaction": {
        "from": "0x84db3d1de9a43aa144c21b248ad31a1c83d8334d",
        "to": "0x1a44076050125825900e736c501f859c50fe728c",
        "gas": "0x17001",
        "value": "0x0",
        "input": "0x6a14d7150000000000000000000000002b11834ed1feaed4b4b3a86a6f571315e25a884d0000000000000000000000000000000000000000000000000000000000007595000000000000000000000000c70ab6f32772f59fbfc23889caf4ba3376c84baf0000000000000000000000000000000000000000000000000000000000000000",
        "nonce": "0x18",
        "chainId": "0x2105"
      },
      "additionalContracts": [],
      "isFixedGasLimit": false
    }
  ],
  "receipts": [
    {
      "type": "0x2",
      "status": "0x1",
      "cumulativeGasUsed": "0x224b866",
      "logs": [
        {
          "address": "0x1a44076050125825900e736c501f859c50fe728c",
          "topics": [
            "0x4cff966ebee29a156dcb34cf72c1d06231fb1777f6bdf6e8089819232f002b1c"
          ],
          "data": "0x0000000000000000000000002b11834ed1feaed4b4b3a86a6f571315e25a884d0000000000000000000000000000000000000000000000000000000000007595000000000000000000000000b5320b0b3a13cc860893e2bd79fcd7e13484dda2",
          "blockHash": "0x0000000000000000000000000000000000000000000000000000000000000000",
          "blockNumber": "0x2c6292a",
          "blockTimestamp": "0x6a16af37",
          "transactionHash": "0xc8bd50fca782f12cf303b85853dac1a4c82580a7f9b6cde826ef21a6a7a69d66",
          "transactionIndex": "0xd5",
          "logIndex": "0x29b",
          "removed": false
        }
      ],
      "logsBloom": "0x00000000000000000000000000000000000200000000000000000000001000000000000000000000000000000000000000000000000000000000000001000000000000000000000000000000000000000000000000000000000000000000000000000000000000000000000000000000000000000010000000000000000000000000000000000000000000000000000000000000000000000000000000000000000000000000000000000000000000000000000000000000000000000000000000000000000000000000000000000000000000000000000000000000000000000040000000000000000000000000000000000000010000000000000000000000",
      "transactionHash": "0xc8bd50fca782f12cf303b85853dac1a4c82580a7f9b6cde826ef21a6a7a69d66",
      "transactionIndex": "0xd5",
      "blockHash": "0x0000000000000000000000000000000000000000000000000000000000000000",
      "blockNumber": "0x2c6292a",
      "gasUsed": "0xe18e",
      "effectiveGasPrice": "0x5b8d80",
      "blobGasUsed": "0x3cb4",
      "from": "0x84db3d1de9a43aa144c21b248ad31a1c83d8334d",
      "to": "0x1a44076050125825900e736c501f859c50fe728c",
      "contractAddress": null
    },
    {
      "type": "0x2",
      "status": "0x1",
      "cumulativeGasUsed": "0x22bb8f0",
      "logs": [
        {
          "address": "0x1a44076050125825900e736c501f859c50fe728c",
          "topics": [
            "0xcd6f92f5ac6185a5acfa02c92090746cec64d777269cbcd0ed031e396657a1c2"
          ],
          "data": "0x0000000000000000000000002b11834ed1feaed4b4b3a86a6f571315e25a884d0000000000000000000000000000000000000000000000000000000000007595000000000000000000000000c70ab6f32772f59fbfc23889caf4ba3376c84baf",
          "blockHash": "0xb49d54c900986ef2bb8039a8f11c64fba8e68ac0bc5aa528347a59df7bdd7477",
          "blockNumber": "0x2c6292a",
          "blockTimestamp": "0x6a16af37",
          "transactionHash": "0x6d815298b6d0575ec299902de0735fb5bfd7bd524fc2c25a27ed4355a9dbd807",
          "transactionIndex": "0xda",
          "logIndex": "0x2a2",
          "removed": false
        },
        {
          "address": "0x1a44076050125825900e736c501f859c50fe728c",
          "topics": [
            "0x4e0a5bbfa0c11a64effb1ada324b5437a17272e1aed9320398715ef71bb20928"
          ],
          "data": "0x0000000000000000000000002b11834ed1feaed4b4b3a86a6f571315e25a884d000000000000000000000000000000000000000000000000000000000000759500000000000000000000000000000000000000000000000000000000000000000000000000000000000000000000000000000000000000000000000000000000",
          "blockHash": "0xb49d54c900986ef2bb8039a8f11c64fba8e68ac0bc5aa528347a59df7bdd7477",
          "blockNumber": "0x2c6292a",
          "blockTimestamp": "0x6a16af37",
          "transactionHash": "0x6d815298b6d0575ec299902de0735fb5bfd7bd524fc2c25a27ed4355a9dbd807",
          "transactionIndex": "0xda",
          "logIndex": "0x2a3",
          "removed": false
        }
      ],
      "logsBloom": "0x00000000000000000000020800000000000000000000000000000000001000020400000000000000000000000000000000000000000000000000000000000000000000000000000000000000000000000000000000800000000000000000000000000000000000000000000000000000000000000010000000000000000000100000000000000000000000000000000000000000000000000000000000000000000000000000000000000000000000000000000000000000000000000000000000000000000000000000000000000000000000000000000000000000000000000000000000000000000000000000000000000000010000000000000000000000",
      "transactionHash": "0x6d815298b6d0575ec299902de0735fb5bfd7bd524fc2c25a27ed4355a9dbd807",
      "transactionIndex": "0xda",
      "blockHash": "0xb49d54c900986ef2bb8039a8f11c64fba8e68ac0bc5aa528347a59df7bdd7477",
      "blockNumber": "0x2c6292a",
      "gasUsed": "0xfba1",
      "effectiveGasPrice": "0x5b8d80",
      "blobGasUsed": "0x402c",
      "from": "0x84db3d1de9a43aa144c21b248ad31a1c83d8334d",
      "to": "0x1a44076050125825900e736c501f859c50fe728c",
      "contractAddress": null
    }
  ],
  "libraries": [],
  "pending": [],
  "returns": {},
  "timestamp": 1779871543978,
  "chain": 8453,
  "commit": "f2529e9"
}