{
  "transactions": [
    {
      "hash": "0xf2dfeffebbfd4998833b0d82a6e5f8ae0ae1761025fd2fd4284d7252502cb3d8",
      "transactionType": "CALL",
      "contractName": null,
      "contractAddress": "0x03f78af82816a4fa4e976aad07319ab7a3bdc889",
      "function": "setPeer(uint32,bytes32)",
      "arguments": [
        "40245",
        "0x000000000000000000000000012fa6c1295278f922d8ca0c5c770cf32dddbf26"
      ],
      "transaction": {
        "from": "0x8c9c001f821c04513616fd7962b2d8c62f925fd2",
        "to": "0x03f78af82816a4fa4e976aad07319ab7a3bdc889",
        "gas": "0x11094",
        "value": "0x0",
        "input": "0x3400288b0000000000000000000000000000000000000000000000000000000000009d35000000000000000000000000012fa6c1295278f922d8ca0c5c770cf32dddbf26",
        "nonce": "0x86",
        "chainId": "0xaa36a7"
      },
      "additionalContracts": [],
      "isFixedGasLimit": false
    }
  ],
  "receipts": [
    {
      "status": "0x1",
      "cumulativeGasUsed": "0xa7ef54",
      "logs": [
        {
          "address": "0x03f78af82816a4fa4e976aad07319ab7a3bdc889",
          "topics": [
            "0x238399d427b947898edb290f5ff0f9109849b1c3ba196a42e35f00c50a54b98b"
          ],
          "data": "0x0000000000000000000000000000000000000000000000000000000000009d35000000000000000000000000012fa6c1295278f922d8ca0c5c770cf32dddbf26",
          "blockHash": "0x9e9619464422485e77068a7faea19f0f9a604c9cb34bfe68729b049668379f7c",
          "blockNumber": "0x7c371b",
          "transactionHash": "0xf2dfeffebbfd4998833b0d82a6e5f8ae0ae1761025fd2fd4284d7252502cb3d8",
          "transactionIndex": "0x55",
          "logIndex": "0xbe",
          "removed": false
        }
      ],
      "logsBloom": "0x00000000000000000000000000000000000000000000000000000000000000000000000000000000000000000000000000000000000000000800800000000000000000000000000000000000000000000000000000000000000000000000000000000000000000000000000000000000000000000002000000000000000000000000000000000000000000000000000000000000000000000000000000000000000000000000000000000000000000000000000000000000000002000000000040000000000000000000000000000000000000000000000000040000000000000000000000000000000000000000000000000000000000000000000000000000",
      "type": "0x2",
      "transactionHash": "0xf2dfeffebbfd4998833b0d82a6e5f8ae0ae1761025fd2fd4284d7252502cb3d8",
      "transactionIndex": "0x55",
      "blockHash": "0x9e9619464422485e77068a7faea19f0f9a604c9cb34bfe68729b049668379f7c",
      "blockNumber": "0x7c371b",
      "gasUsed": "0xba61",
      "effectiveGasPrice": "0x19055e",
      "from": "0x8c9c001f821c04513616fd7962b2d8c62f925fd2",
      "to": "0x03f78af82816a4fa4e976aad07319ab7a3bdc889",
      "contractAddress": null
    }
  ],
  "libraries": [],
  "pending": [],
  "returns": {},
  "timestamp": 1744937161,
  "chain": 11155111,
  "commit": "4c27433"
}