{
  "transactions": [
    {
      "hash": "0xeb210cfac954b78a2c8141e2f14d9d345cbc887f61a92a05f82c11225ec1bd71",
      "transactionType": "CALL",
      "contractName": "MocaTokenMock",
      "contractAddress": "0x5667424802ef74c314e7adbba6fa669999d8137d",
      "function": "approve(address,uint256)",
      "arguments": [
        "0x03f78AF82816a4fa4E976Aad07319aB7A3bDc889",
        "1000000000000000000"
      ],
      "transaction": {
        "from": "0x8c9c001f821c04513616fd7962b2d8c62f925fd2",
        "to": "0x5667424802ef74c314e7adbba6fa669999d8137d",
        "gas": "0x9e0d",
        "value": "0x0",
        "input": "0x095ea7b300000000000000000000000003f78af82816a4fa4e976aad07319ab7a3bdc8890000000000000000000000000000000000000000000000000de0b6b3a7640000",
        "nonce": "0x8d",
        "chainId": "0xaa36a7"
      },
      "additionalContracts": [],
      "isFixedGasLimit": false
    },
    {
      "hash": "0x231d3d6ea45328a0d86dab40dfb820d201624dddf3f00818859c1c67c8f151ee",
      "transactionType": "CALL",
      "contractName": null,
      "contractAddress": "0x03f78af82816a4fa4e976aad07319ab7a3bdc889",
      "function": "send((uint32,bytes32,uint256,uint256,bytes,bytes,bytes),(uint256,uint256),address)",
      "arguments": [
        "(40245, 0x000000000000000000000000de05a1abb121113a33eed248bd91ddc254d5e9db, 1000000000000000000, 1000000000000000000, 0x0003010031020000000000000000001550f7dca70000000000000000000000000000de05a1abb121113a33eed248bd91ddc254d5e9db, 0x, 0x)",
        "(7327545971840875, 0)",
        "0xdE05a1Abb121113a33eeD248BD91ddC254d5E9Db"
      ],
      "transaction": {
        "from": "0x8c9c001f821c04513616fd7962b2d8c62f925fd2",
        "to": "0x03f78af82816a4fa4e976aad07319ab7a3bdc889",
        "gas": "0x550ad",
        "value": "0x1a085d3eba176b",
        "input": "0xc7c7f5b30000000000000000000000000000000000000000000000000000000000000080000000000000000000000000000000000000000000000000001a085d3eba176b0000000000000000000000000000000000000000000000000000000000000000000000000000000000000000de05a1abb121113a33eed248bd91ddc254d5e9db0000000000000000000000000000000000000000000000000000000000009d35000000000000000000000000de05a1abb121113a33eed248bd91ddc254d5e9db0000000000000000000000000000000000000000000000000de0b6b3a76400000000000000000000000000000000000000000000000000000de0b6b3a764000000000000000000000000000000000000000000000000000000000000000000e00000000000000000000000000000000000000000000000000000000000000140000000000000000000000000000000000000000000000000000000000000016000000000000000000000000000000000000000000000000000000000000000360003010031020000000000000000001550f7dca70000000000000000000000000000de05a1abb121113a33eed248bd91ddc254d5e9db0000000000000000000000000000000000000000000000000000000000000000000000000000000000000000000000000000000000000000000000000000000000000000000000000000",
        "nonce": "0x8e",
        "chainId": "0xaa36a7"
      },
      "additionalContracts": [],
      "isFixedGasLimit": false
    }
  ],
  "receipts": [
    {
      "status": "0x1",
      "cumulativeGasUsed": "0x16b7faf",
      "logs": [
        {
          "address": "0x5667424802ef74c314e7adbba6fa669999d8137d",
          "topics": [
            "0x8c5be1e5ebec7d5bd14f71427d1e84f3dd0314c0f7b2291e5b200ac8c7c3b925",
            "0x0000000000000000000000008c9c001f821c04513616fd7962b2d8c62f925fd2",
            "0x00000000000000000000000003f78af82816a4fa4e976aad07319ab7a3bdc889"
          ],
          "data": "0x0000000000000000000000000000000000000000000000000de0b6b3a7640000",
          "blockHash": "0x093dc0db0636081ac9d195ac8387dd1c7f11db5a35d836448adb4ca9e3909fbc",
          "blockNumber": "0x7c374d",
          "transactionHash": "0xeb210cfac954b78a2c8141e2f14d9d345cbc887f61a92a05f82c11225ec1bd71",
          "transactionIndex": "0xb7",
          "logIndex": "0x1d3",
          "removed": false
        }
      ],
      "logsBloom": "0x00000000000000000000000000000800000000000000000002000000000000000000000000000020000000000000000000000000000000000000000000200000000000000000000000000000004000000000000000000000000000000000000000000000000000004000000000000000000000000000000000000000000000000000000000000000000000000000000000000000000000000000000000000000020001000000000000000000000000000000000000000000000080000000000800000000000000000000000000000000000000000000000000000000100000000010000000000000000000000000000000000000000000000000000000000000",
      "type": "0x2",
      "transactionHash": "0xeb210cfac954b78a2c8141e2f14d9d345cbc887f61a92a05f82c11225ec1bd71",
      "transactionIndex": "0xb7",
      "blockHash": "0x093dc0db0636081ac9d195ac8387dd1c7f11db5a35d836448adb4ca9e3909fbc",
      "blockNumber": "0x7c374d",
      "gasUsed": "0x726e",
      "effectiveGasPrice": "0x23d92d",
      "from": "0x8c9c001f821c04513616fd7962b2d8c62f925fd2",
      "to": "0x5667424802ef74c314e7adbba6fa669999d8137d",
      "contractAddress": null
    },
    {
      "status": "0x1",
      "cumulativeGasUsed": "0x16f2210",
      "logs": [
        {
          "address": "0x5667424802ef74c314e7adbba6fa669999d8137d",
          "topics": [
            "0xddf252ad1be2c89b69c2b068fc378daa952ba7f163c4a11628f55a4df523b3ef",
            "0x0000000000000000000000008c9c001f821c04513616fd7962b2d8c62f925fd2",
            "0x00000000000000000000000003f78af82816a4fa4e976aad07319ab7a3bdc889"
          ],
          "data": "0x0000000000000000000000000000000000000000000000000de0b6b3a7640000",
          "blockHash": "0x093dc0db0636081ac9d195ac8387dd1c7f11db5a35d836448adb4ca9e3909fbc",
          "blockNumber": "0x7c374d",
          "transactionHash": "0x231d3d6ea45328a0d86dab40dfb820d201624dddf3f00818859c1c67c8f151ee",
          "transactionIndex": "0xb8",
          "logIndex": "0x1d4",
          "removed": false
        },
        {
          "address": "0xcc1ae8cf5d3904cef3360a9532b477529b177cce",
          "topics": [
            "0x61ed099e74a97a1d7f8bb0952a88ca8b7b8ebd00c126ea04671f92a81213318a"
          ],
          "data": "0x000000000000000000000000718b92b5cb0a5552039b593faf724d182a881eda000000000000000000000000000000000000000000000000001a02c47e5641a3",
          "blockHash": "0x093dc0db0636081ac9d195ac8387dd1c7f11db5a35d836448adb4ca9e3909fbc",
          "blockNumber": "0x7c374d",
          "transactionHash": "0x231d3d6ea45328a0d86dab40dfb820d201624dddf3f00818859c1c67c8f151ee",
          "transactionIndex": "0xb8",
          "logIndex": "0x1d5",
          "removed": false
        },
        {
          "address": "0xcc1ae8cf5d3904cef3360a9532b477529b177cce",
          "topics": [
            "0x07ea52d82345d6e838192107d8fd7123d9c2ec8e916cd0aad13fd2b60db24644"
          ],
          "data": "0x000000000000000000000000000000000000000000000000000000000000006000000000000000000000000000000000000000000000000000000000000000a000000000000000000000000000000000000000000000000000000000000000c000000000000000000000000000000000000000000000000000000000000000010000000000000000000000008eebf8b423b73bfca51a1db4b7354aa0bfca91930000000000000000000000000000000000000000000000000000000000000000000000000000000000000000000000000000000000000000000000000000000100000000000000000000000000000000000000000000000000000598c063d5c8",
          "blockHash": "0x093dc0db0636081ac9d195ac8387dd1c7f11db5a35d836448adb4ca9e3909fbc",
          "blockNumber": "0x7c374d",
          "transactionHash": "0x231d3d6ea45328a0d86dab40dfb820d201624dddf3f00818859c1c67c8f151ee",
          "transactionIndex": "0xb8",
          "logIndex": "0x1d6",
          "removed": false
        },
        {
          "address": "0x6edce65403992e310a62460808c4b910d972f10f",
          "topics": [
            "0x1ab700d4ced0c005b164c0f789fd09fcbb0156d4c2041b8a3bfbcd961cd1567f"
          ],
          "data": "0x00000000000000000000000000000000000000000000000000000000000000600000000000000000000000000000000000000000000000000000000000000120000000000000000000000000cc1ae8cf5d3904cef3360a9532b477529b177cce000000000000000000000000000000000000000000000000000000000000009901000000000000000200009ce100000000000000000000000003f78af82816a4fa4e976aad07319ab7a3bdc88900009d35000000000000000000000000012fa6c1295278f922d8ca0c5c770cf32dddbf2674dad6c1912a607a4205a80ee665006c028e19d0c6cf96eeb6bc4fb46365a846000000000000000000000000de05a1abb121113a33eed248bd91ddc254d5e9db00000000000f424000000000000000000000000000000000000000000000000000000000000000000000000000004a00030100110100000000000000000000000000030d40010031020000000000000000001550f7dca70000000000000000000000000000de05a1abb121113a33eed248bd91ddc254d5e9db00000000000000000000000000000000000000000000",
          "blockHash": "0x093dc0db0636081ac9d195ac8387dd1c7f11db5a35d836448adb4ca9e3909fbc",
          "blockNumber": "0x7c374d",
          "transactionHash": "0x231d3d6ea45328a0d86dab40dfb820d201624dddf3f00818859c1c67c8f151ee",
          "transactionIndex": "0xb8",
          "logIndex": "0x1d7",
          "removed": false
        },
        {
          "address": "0x03f78af82816a4fa4e976aad07319ab7a3bdc889",
          "topics": [
            "0xfff873bb909b73d08a8c1af4b21779e87103bb8ea8cf3b3a0067eb8526b8b80a",
            "0x74dad6c1912a607a4205a80ee665006c028e19d0c6cf96eeb6bc4fb46365a846",
            "0x0000000000000000000000008c9c001f821c04513616fd7962b2d8c62f925fd2"
          ],
          "data": "0x0000000000000000000000000000000000000000000000000000000000009d350000000000000000000000000000000000000000000000000de0b6b3a7640000",
          "blockHash": "0x093dc0db0636081ac9d195ac8387dd1c7f11db5a35d836448adb4ca9e3909fbc",
          "blockNumber": "0x7c374d",
          "transactionHash": "0x231d3d6ea45328a0d86dab40dfb820d201624dddf3f00818859c1c67c8f151ee",
          "transactionIndex": "0xb8",
          "logIndex": "0x1d8",
          "removed": false
        }
      ],
      "logsBloom": "0x0000000000000000000000000000080000000000000000003200000000010000000000000000002020000000008000000000000000000000000180000000000000000000000000000000000800400000000000000000000000000000000000000000000000000000c2000000000000000000000000020000000000100000000000000000000000200000000800000000000002000000000000000000000000000000010080000000001000000000000000000000004000000004c0000000000840000002000000000000000000000000000000080000000800000000100000000000040000000000000000000000002000000000000000000000000000000020",
      "type": "0x2",
      "transactionHash": "0x231d3d6ea45328a0d86dab40dfb820d201624dddf3f00818859c1c67c8f151ee",
      "transactionIndex": "0xb8",
      "blockHash": "0x093dc0db0636081ac9d195ac8387dd1c7f11db5a35d836448adb4ca9e3909fbc",
      "blockNumber": "0x7c374d",
      "gasUsed": "0x3a261",
      "effectiveGasPrice": "0x23d92d",
      "from": "0x8c9c001f821c04513616fd7962b2d8c62f925fd2",
      "to": "0x03f78af82816a4fa4e976aad07319ab7a3bdc889",
      "contractAddress": null
    }
  ],
  "libraries": [],
  "pending": [],
  "returns": {},
  "timestamp": 1744937811,
  "chain": 11155111,
  "commit": "4c27433"
}