{
  "transactions": [
    {
      "hash": "0x5189e97f5f046a124a72553e47c831475a6e52d0fe8b8fcff6b18058f183cde8",
      "transactionType": "CALL",
      "contractName": null,
      "contractAddress": "0x03f78af82816a4fa4e976aad07319ab7a3bdc889",
      "function": "setEnforcedOptions((uint32,uint16,bytes)[])",
      "arguments": [
        "[(40245, 1, 0x00030100110100000000000000000000000000030d40), (40245, 2, 0x000301001303000000000000000000000000000000000000)]"
      ],
      "transaction": {
        "from": "0x8c9c001f821c04513616fd7962b2d8c62f925fd2",
        "to": "0x03f78af82816a4fa4e976aad07319ab7a3bdc889",
        "gas": "0x1acb9",
        "value": "0x0",
        "input": "0xb98bd07000000000000000000000000000000000000000000000000000000000000000200000000000000000000000000000000000000000000000000000000000000002000000000000000000000000000000000000000000000000000000000000004000000000000000000000000000000000000000000000000000000000000000e00000000000000000000000000000000000000000000000000000000000009d3500000000000000000000000000000000000000000000000000000000000000010000000000000000000000000000000000000000000000000000000000000060000000000000000000000000000000000000000000000000000000000000001600030100110100000000000000000000000000030d40000000000000000000000000000000000000000000000000000000000000000000000000000000009d350000000000000000000000000000000000000000000000000000000000000002000000000000000000000000000000000000000000000000000000000000006000000000000000000000000000000000000000000000000000000000000000180003010013030000000000000000000000000000000000000000000000000000",
        "nonce": "0x87",
        "chainId": "0xaa36a7"
      },
      "additionalContracts": [],
      "isFixedGasLimit": false
    }
  ],
  "receipts": [
    {
      "status": "0x1",
      "cumulativeGasUsed": "0xc360d5",
      "logs": [
        {
          "address": "0x03f78af82816a4fa4e976aad07319ab7a3bdc889",
          "topics": [
            "0xbe4864a8e820971c0247f5992e2da559595f7bf076a21cb5928d443d2a13b674"
          ],
          "data": "0x00000000000000000000000000000000000000000000000000000000000000200000000000000000000000000000000000000000000000000000000000000002000000000000000000000000000000000000000000000000000000000000004000000000000000000000000000000000000000000000000000000000000000e00000000000000000000000000000000000000000000000000000000000009d3500000000000000000000000000000000000000000000000000000000000000010000000000000000000000000000000000000000000000000000000000000060000000000000000000000000000000000000000000000000000000000000001600030100110100000000000000000000000000030d40000000000000000000000000000000000000000000000000000000000000000000000000000000009d350000000000000000000000000000000000000000000000000000000000000002000000000000000000000000000000000000000000000000000000000000006000000000000000000000000000000000000000000000000000000000000000180003010013030000000000000000000000000000000000000000000000000000",
          "blockHash": "0xe2805a785a4483ce447155c01f59832b1f4256dc3d896c69cb3fb497cecdd92f",
          "blockNumber": "0x7c371e",
          "transactionHash": "0x5189e97f5f046a124a72553e47c831475a6e52d0fe8b8fcff6b18058f183cde8",
          "transactionIndex": "0x5c",
          "logIndex": "0xf2",
          "removed": false
        }
      ],
      "logsBloom": "0x00000000000000000000000000000000000000000000000000000000000000000000000000000000000000000000000000000000000000000000c00000000000000000000000000000000000000000000000000000000000000000000000000000000000000000000000000000000000000000000002000000000000000000000000000000000000000000000000000000000000000000000000000000080000000000000000000000000000000000000000000000000000000000000000000040000000000000000000000002000000000000000000000000000000000000000000000000000000000000000000000000000000000000000000000000000000",
      "type": "0x2",
      "transactionHash": "0x5189e97f5f046a124a72553e47c831475a6e52d0fe8b8fcff6b18058f183cde8",
      "transactionIndex": "0x5c",
      "blockHash": "0xe2805a785a4483ce447155c01f59832b1f4256dc3d896c69cb3fb497cecdd92f",
      "blockNumber": "0x7c371e",
      "gasUsed": "0x13664",
      "effectiveGasPrice": "0x19aed0",
      "from": "0x8c9c001f821c04513616fd7962b2d8c62f925fd2",
      "to": "0x03f78af82816a4fa4e976aad07319ab7a3bdc889",
      "contractAddress": null
    }
  ],
  "libraries": [],
  "pending": [],
  "returns": {},
  "timestamp": 1744937198,
  "chain": 11155111,
  "commit": "4c27433"
}