{
  "transactions": [
    {
      "hash": "0x89b7ad47515266bd7346108b589c880bf86208179152e5c613435c2ee19dc24a",
      "transactionType": "CALL",
      "contractName": null,
      "contractAddress": "0x1a44076050125825900e736c501f859c50fe728c",
      "function": "setConfig(address,address,(uint32,uint32,bytes)[])",
      "arguments": [
        "0x2B11834Ed1FeAEd4b4b3a86A6F571315E25A884D",
        "0xc02Ab410f0734EFa3F14628780e6e695156024C2",
        "[(30184, 2, 0x0000000000000000000000000000000000000000000000000000000000000020000000000000000000000000000000000000000000000000000000000000013b00000000000000000000000000000000000000000000000000000000000000040000000000000000000000000000000000000000000000000000000000000000000000000000000000000000000000000000000000000000000000000000000000000000000000000000000000000000000000000000000000000000000000c000000000000000000000000000000000000000000000000000000000000001600000000000000000000000000000000000000000000000000000000000000004000000000000000000000000589dedbd617e0cbcb916a9223f4d1300c294236b000000000000000000000000a59ba433ac34d2927232918ef5b2eaafcf130ba5000000000000000000000000c9ca319f6da263910fd9b037ec3d817a814ef3d8000000000000000000000000d56e4eab23cb81f43168f9f45211eb027b9ac7cc0000000000000000000000000000000000000000000000000000000000000000)]"
      ],
      "transaction": {
        "from": "0x84db3d1de9a43aa144c21b248ad31a1c83d8334d",
        "to": "0x1a44076050125825900e736c501f859c50fe728c",
        "gas": "0x17475",
        "value": "0x0",
        "input": "0x6dbd9f900000000000000000000000002b11834ed1feaed4b4b3a86a6f571315e25a884d000000000000000000000000c02ab410f0734efa3f14628780e6e695156024c200000000000000000000000000000000000000000000000000000000000000600000000000000000000000000000000000000000000000000000000000000001000000000000000000000000000000000000000000000000000000000000002000000000000000000000000000000000000000000000000000000000000075e80000000000000000000000000000000000000000000000000000000000000002000000000000000000000000000000000000000000000000000000000000006000000000000000000000000000000000000000000000000000000000000001a00000000000000000000000000000000000000000000000000000000000000020000000000000000000000000000000000000000000000000000000000000013b00000000000000000000000000000000000000000000000000000000000000040000000000000000000000000000000000000000000000000000000000000000000000000000000000000000000000000000000000000000000000000000000000000000000000000000000000000000000000000000000000000000000000c000000000000000000000000000000000000000000000000000000000000001600000000000000000000000000000000000000000000000000000000000000004000000000000000000000000589dedbd617e0cbcb916a9223f4d1300c294236b000000000000000000000000a59ba433ac34d2927232918ef5b2eaafcf130ba5000000000000000000000000c9ca319f6da263910fd9b037ec3d817a814ef3d8000000000000000000000000d56e4eab23cb81f43168f9f45211eb027b9ac7cc0000000000000000000000000000000000000000000000000000000000000000",
        "nonce": "0x14",
        "chainId": "0x1"
      },
      "additionalContracts": [],
      "isFixedGasLimit": false
    }
  ],
  "receipts": [
    {
      "status": "0x1",
      "cumulativeGasUsed": "0x1147b12",
      "logs": [
        {
          "address": "0xc02ab410f0734efa3f14628780e6e695156024c2",
          "topics": [
            "0x82118522aa536ac0e96cc5c689407ae42b89d592aa133890a01f1509842f5081"
          ],
          "data": "0x0000000000000000000000002b11834ed1feaed4b4b3a86a6f571315e25a884d00000000000000000000000000000000000000000000000000000000000075e80000000000000000000000000000000000000000000000000000000000000060000000000000000000000000000000000000000000000000000000000000013b00000000000000000000000000000000000000000000000000000000000000040000000000000000000000000000000000000000000000000000000000000000000000000000000000000000000000000000000000000000000000000000000000000000000000000000000000000000000000000000000000000000000000c000000000000000000000000000000000000000000000000000000000000001600000000000000000000000000000000000000000000000000000000000000004000000000000000000000000589dedbd617e0cbcb916a9223f4d1300c294236b000000000000000000000000a59ba433ac34d2927232918ef5b2eaafcf130ba5000000000000000000000000c9ca319f6da263910fd9b037ec3d817a814ef3d8000000000000000000000000d56e4eab23cb81f43168f9f45211eb027b9ac7cc0000000000000000000000000000000000000000000000000000000000000000",
          "blockHash": "0x62fe06632a546014087dcc9d516090f879e9ef241ad699ccde06eb7969f226c7",
          "blockNumber": "0x14c3024",
          "transactionHash": "0x89b7ad47515266bd7346108b589c880bf86208179152e5c613435c2ee19dc24a",
          "transactionIndex": "0xa7",
          "logIndex": "0x20f",
          "removed": false
        }
      ],
      "logsBloom": "0x00000000000000000000000000000000000000000000000000000000000000000000000000000004000000000000000000000000000000000000000000000000000000000000000000000000000000000000000000000000002000000000000000000000000000000000000000000000000000000000000000000000000000000000000100000000000010000000000000000000000000000000000000000000000000000000000000000002000000000000000000000000000000000000000000000000000000000000000000000000000000000000000000000000000000000000000000000000000000000000000000000000000000000000000000000010",
      "type": "0x2",
      "transactionHash": "0x89b7ad47515266bd7346108b589c880bf86208179152e5c613435c2ee19dc24a",
      "transactionIndex": "0xa7",
      "blockHash": "0x62fe06632a546014087dcc9d516090f879e9ef241ad699ccde06eb7969f226c7",
      "blockNumber": "0x14c3024",
      "gasUsed": "0x10da8",
      "effectiveGasPrice": "0x9c6a8394",
      "from": "0x84db3d1de9a43aa144c21b248ad31a1c83d8334d",
      "to": "0x1a44076050125825900e736c501f859c50fe728c",
      "contractAddress": null
    }
  ],
  "libraries": [],
  "pending": [],
  "returns": {},
  "timestamp": 1738637486,
  "chain": 1,
  "commit": "abe79db"
}