{
  "transactions": [
    {
      "hash": "0xa066cbcb9f1710c3a03f2e2704f532423d853b582d11f5bfa56da658d8d84b5f",
      "transactionType": "CALL",
      "contractName": "MocaTokenAdapter",
      "contractAddress": "0x2b11834ed1feaed4b4b3a86a6f571315e25a884d",
      "function": "send((uint32,bytes32,uint256,uint256,bytes,bytes,bytes),(uint256,uint256),address)",
      "arguments": [
        "(30184, 0x00000000000000000000000084db3d1de9a43aa144c21b248ad31a1c83d8334d, 1000000000000000000, 1000000000000000000, 0x, 0x, 0x)",
        "(57474359700380, 0)",
        "0x84Db3d1de9a43Aa144C21b248AD31a1c83d8334D"
      ],
      "transaction": {
        "from": "0x84db3d1de9a43aa144c21b248ad31a1c83d8334d",
        "to": "0x2b11834ed1feaed4b4b3a86a6f571315e25a884d",
        "gas": "0x82055",
        "value": "0x3445cacb2b9c",
        "input": "0xc7c7f5b3000000000000000000000000000000000000000000000000000000000000008000000000000000000000000000000000000000000000000000003445cacb2b9c000000000000000000000000000000000000000000000000000000000000000000000000000000000000000084db3d1de9a43aa144c21b248ad31a1c83d8334d00000000000000000000000000000000000000000000000000000000000075e800000000000000000000000084db3d1de9a43aa144c21b248ad31a1c83d8334d0000000000000000000000000000000000000000000000000de0b6b3a76400000000000000000000000000000000000000000000000000000de0b6b3a764000000000000000000000000000000000000000000000000000000000000000000e000000000000000000000000000000000000000000000000000000000000001000000000000000000000000000000000000000000000000000000000000000120000000000000000000000000000000000000000000000000000000000000000000000000000000000000000000000000000000000000000000000000000000000000000000000000000000000000000000000000000000000000000000000000",
        "nonce": "0x13",
        "chainId": "0x1"
      },
      "additionalContracts": [],
      "isFixedGasLimit": false
    }
  ],
  "receipts": [
    {
      "status": "0x1",
      "cumulativeGasUsed": "0x109a9e0",
      "logs": [
        {
          "address": "0xf944e35f95e819e752f3ccb5faf40957d311e8c5",
          "topics": [
            "0xddf252ad1be2c89b69c2b068fc378daa952ba7f163c4a11628f55a4df523b3ef",
            "0x00000000000000000000000084db3d1de9a43aa144c21b248ad31a1c83d8334d",
            "0x0000000000000000000000002b11834ed1feaed4b4b3a86a6f571315e25a884d"
          ],
          "data": "0x0000000000000000000000000000000000000000000000000de0b6b3a7640000",
          "blockHash": "0xa22ec7f63062bbf594626d2f0ff68e73ed83051a46ff91a852a75b5e78a77faa",
          "blockNumber": "0x14c2fd8",
          "transactionHash": "0xa066cbcb9f1710c3a03f2e2704f532423d853b582d11f5bfa56da658d8d84b5f",
          "transactionIndex": "0xce",
          "logIndex": "0x1a5",
          "removed": false
        },
        {
          "address": "0xbb2ea70c9e858123480642cf96acbcce1372dce1",
          "topics": [
            "0x61ed099e74a97a1d7f8bb0952a88ca8b7b8ebd00c126ea04671f92a81213318a"
          ],
          "data": "0x000000000000000000000000173272739bd7aa6e4e214714048a9fe699453059000000000000000000000000000000000000000000000000000011d34c27b322",
          "blockHash": "0xa22ec7f63062bbf594626d2f0ff68e73ed83051a46ff91a852a75b5e78a77faa",
          "blockNumber": "0x14c2fd8",
          "transactionHash": "0xa066cbcb9f1710c3a03f2e2704f532423d853b582d11f5bfa56da658d8d84b5f",
          "transactionIndex": "0xce",
          "logIndex": "0x1a6",
          "removed": false
        },
        {
          "address": "0xbb2ea70c9e858123480642cf96acbcce1372dce1",
          "topics": [
            "0x07ea52d82345d6e838192107d8fd7123d9c2ec8e916cd0aad13fd2b60db24644"
          ],
          "data": "0x0000000000000000000000000000000000000000000000000000000000000060000000000000000000000000000000000000000000000000000000000000010000000000000000000000000000000000000000000000000000000000000001200000000000000000000000000000000000000000000000000000000000000004000000000000000000000000589dedbd617e0cbcb916a9223f4d1300c294236b000000000000000000000000a59ba433ac34d2927232918ef5b2eaafcf130ba5000000000000000000000000c9ca319f6da263910fd9b037ec3d817a814ef3d8000000000000000000000000d56e4eab23cb81f43168f9f45211eb027b9ac7cc00000000000000000000000000000000000000000000000000000000000000000000000000000000000000000000000000000000000000000000000000000004000000000000000000000000000000000000000000000000000000b452e01f93000000000000000000000000000000000000000000000000000000b2286b22c6000000000000000000000000000000000000000000000000000000be11ee912c0000000000000000000000000000000000000000000000000000204df169a4f5",
          "blockHash": "0xa22ec7f63062bbf594626d2f0ff68e73ed83051a46ff91a852a75b5e78a77faa",
          "blockNumber": "0x14c2fd8",
          "transactionHash": "0xa066cbcb9f1710c3a03f2e2704f532423d853b582d11f5bfa56da658d8d84b5f",
          "transactionIndex": "0xce",
          "logIndex": "0x1a7",
          "removed": false
        },
        {
          "address": "0x1a44076050125825900e736c501f859c50fe728c",
          "topics": [
            "0x1ab700d4ced0c005b164c0f789fd09fcbb0156d4c2041b8a3bfbcd961cd1567f"
          ],
          "data": "0x00000000000000000000000000000000000000000000000000000000000000600000000000000000000000000000000000000000000000000000000000000120000000000000000000000000bb2ea70c9e858123480642cf96acbcce1372dce10000000000000000000000000000000000000000000000000000000000000099010000000000000001000075950000000000000000000000002b11834ed1feaed4b4b3a86a6f571315e25a884d000075e80000000000000000000000002b11834ed1feaed4b4b3a86a6f571315e25a884de4dcbd2e31934751d387eea8fe6a3211b0e8e44c749f5e0970890a9c59cf67af00000000000000000000000084db3d1de9a43aa144c21b248ad31a1c83d8334d00000000000f424000000000000000000000000000000000000000000000000000000000000000000000000000001600030100110100000000000000000000000000030d4000000000000000000000",
          "blockHash": "0xa22ec7f63062bbf594626d2f0ff68e73ed83051a46ff91a852a75b5e78a77faa",
          "blockNumber": "0x14c2fd8",
          "transactionHash": "0xa066cbcb9f1710c3a03f2e2704f532423d853b582d11f5bfa56da658d8d84b5f",
          "transactionIndex": "0xce",
          "logIndex": "0x1a8",
          "removed": false
        },
        {
          "address": "0x2b11834ed1feaed4b4b3a86a6f571315e25a884d",
          "topics": [
            "0xfff873bb909b73d08a8c1af4b21779e87103bb8ea8cf3b3a0067eb8526b8b80a",
            "0xe4dcbd2e31934751d387eea8fe6a3211b0e8e44c749f5e0970890a9c59cf67af",
            "0x00000000000000000000000084db3d1de9a43aa144c21b248ad31a1c83d8334d"
          ],
          "data": "0x00000000000000000000000000000000000000000000000000000000000075e80000000000000000000000000000000000000000000000000de0b6b3a7640000",
          "blockHash": "0xa22ec7f63062bbf594626d2f0ff68e73ed83051a46ff91a852a75b5e78a77faa",
          "blockNumber": "0x14c2fd8",
          "transactionHash": "0xa066cbcb9f1710c3a03f2e2704f532423d853b582d11f5bfa56da658d8d84b5f",
          "transactionIndex": "0xce",
          "logIndex": "0x1a9",
          "removed": false
        }
      ],
      "logsBloom": "0x40000000000000000000000000000000000001000000000030000000001000000400000000000000000000000080080000000000002000000000000000800000000000000000000000000008000000000000200000000000000000000004000000000000000000008000000000000000000000000010000000000010000000000008000000000000001000080000000000000000000000000000000000000000800000008000000000300000020000000000000000400000000440000000000000000002000000000080000000000000000000000000000000080000000000000000040000000000000000020000002040000000010000000000000000000000",
      "type": "0x2",
      "transactionHash": "0xa066cbcb9f1710c3a03f2e2704f532423d853b582d11f5bfa56da658d8d84b5f",
      "transactionIndex": "0xce",
      "blockHash": "0xa22ec7f63062bbf594626d2f0ff68e73ed83051a46ff91a852a75b5e78a77faa",
      "blockNumber": "0x14c2fd8",
      "gasUsed": "0x5e220",
      "effectiveGasPrice": "0xbcca263f",
      "from": "0x84db3d1de9a43aa144c21b248ad31a1c83d8334d",
      "to": "0x2b11834ed1feaed4b4b3a86a6f571315e25a884d",
      "contractAddress": null
    }
  ],
  "libraries": [],
  "pending": [],
  "returns": {},
  "timestamp": 1738636576,
  "chain": 1,
  "commit": "abe79db"
}