{
  "transactions": [
    {
      "hash": "0xe9807c6d796086c5376f6779330f6510d6443a222c78eb90fd8f5c6e18ecbeeb",
      "transactionType": "CALL",
      "contractName": null,
      "contractAddress": "0x1a44076050125825900e736c501f859c50fe728c",
      "function": "setSendLibrary(address,uint32,address)",
      "arguments": [
        "0x2B11834Ed1FeAEd4b4b3a86A6F571315E25A884D",
        "30101",
        "0xbB2Ea70C9E858123480642Cf96acbcCE1372dCe1"
      ],
      "transaction": {
        "from": "0x84db3d1de9a43aa144c21b248ad31a1c83d8334d",
        "to": "0x1a44076050125825900e736c501f859c50fe728c",
        "gas": "0x1378b",
        "value": "0x0",
        "input": "0x9535ff300000000000000000000000002b11834ed1feaed4b4b3a86a6f571315e25a884d0000000000000000000000000000000000000000000000000000000000007595000000000000000000000000bb2ea70c9e858123480642cf96acbcce1372dce1",
        "nonce": "0xe",
        "chainId": "0x1"
      },
      "additionalContracts": [],
      "isFixedGasLimit": false
    },
    {
      "hash": "0xf20ec59fbff921b7e217ab12e24dfb93d83fa251b408c8010747414a0082256b",
      "transactionType": "CALL",
      "contractName": null,
      "contractAddress": "0x1a44076050125825900e736c501f859c50fe728c",
      "function": "setReceiveLibrary(address,uint32,address,uint256)",
      "arguments": [
        "0x2B11834Ed1FeAEd4b4b3a86A6F571315E25A884D",
        "30101",
        "0xc02Ab410f0734EFa3F14628780e6e695156024C2",
        "0"
      ],
      "transaction": {
        "from": "0x84db3d1de9a43aa144c21b248ad31a1c83d8334d",
        "to": "0x1a44076050125825900e736c501f859c50fe728c",
        "gas": "0x17001",
        "value": "0x0",
        "input": "0x6a14d7150000000000000000000000002b11834ed1feaed4b4b3a86a6f571315e25a884d0000000000000000000000000000000000000000000000000000000000007595000000000000000000000000c02ab410f0734efa3f14628780e6e695156024c20000000000000000000000000000000000000000000000000000000000000000",
        "nonce": "0xf",
        "chainId": "0x1"
      },
      "additionalContracts": [],
      "isFixedGasLimit": false
    }
  ],
  "receipts": [
    {
      "status": "0x1",
      "cumulativeGasUsed": "0xdca76f",
      "logs": [
        {
          "address": "0x1a44076050125825900e736c501f859c50fe728c",
          "topics": [
            "0x4cff966ebee29a156dcb34cf72c1d06231fb1777f6bdf6e8089819232f002b1c"
          ],
          "data": "0x0000000000000000000000002b11834ed1feaed4b4b3a86a6f571315e25a884d0000000000000000000000000000000000000000000000000000000000007595000000000000000000000000bb2ea70c9e858123480642cf96acbcce1372dce1",
          "blockHash": "0x0a3fa0d2db726a7c28e44e6ad1f7b37d46993bccdab58b5b0d7beaf55a5b2a64",
          "blockNumber": "0x14c2f61",
          "transactionHash": "0xe9807c6d796086c5376f6779330f6510d6443a222c78eb90fd8f5c6e18ecbeeb",
          "transactionIndex": "0x81",
          "logIndex": "0x17e",
          "removed": false
        }
      ],
      "logsBloom": "0x00000000000000000000000000000000000200000000000000000000001000000000000000000000000000000000000000000000000000000000000001000000000000000000000000000000000000000000000000000000000000000000000000000000000000000000000000000000000000000010000000000000000000000000000000000000000000000000000000000000000000000000000000000000000000000000000000000000000000000000000000000000000000000000000000000000000000000000000000000000000000000000000000000000000000000040000000000000000000000000000000000000010000000000000000000000",
      "type": "0x2",
      "transactionHash": "0xe9807c6d796086c5376f6779330f6510d6443a222c78eb90fd8f5c6e18ecbeeb",
      "transactionIndex": "0x81",
      "blockHash": "0x0a3fa0d2db726a7c28e44e6ad1f7b37d46993bccdab58b5b0d7beaf55a5b2a64",
      "blockNumber": "0x14c2f61",
      "gasUsed": "0xe18e",
      "effectiveGasPrice": "0xd120d571",
      "from": "0x84db3d1de9a43aa144c21b248ad31a1c83d8334d",
      "to": "0x1a44076050125825900e736c501f859c50fe728c",
      "contractAddress": null
    },
    {
      "status": "0x1",
      "cumulativeGasUsed": "0xdda310",
      "logs": [
        {
          "address": "0x1a44076050125825900e736c501f859c50fe728c",
          "topics": [
            "0xcd6f92f5ac6185a5acfa02c92090746cec64d777269cbcd0ed031e396657a1c2"
          ],
          "data": "0x0000000000000000000000002b11834ed1feaed4b4b3a86a6f571315e25a884d0000000000000000000000000000000000000000000000000000000000007595000000000000000000000000c02ab410f0734efa3f14628780e6e695156024c2",
          "blockHash": "0x0a3fa0d2db726a7c28e44e6ad1f7b37d46993bccdab58b5b0d7beaf55a5b2a64",
          "blockNumber": "0x14c2f61",
          "transactionHash": "0xf20ec59fbff921b7e217ab12e24dfb93d83fa251b408c8010747414a0082256b",
          "transactionIndex": "0x82",
          "logIndex": "0x17f",
          "removed": false
        },
        {
          "address": "0x1a44076050125825900e736c501f859c50fe728c",
          "topics": [
            "0x4e0a5bbfa0c11a64effb1ada324b5437a17272e1aed9320398715ef71bb20928"
          ],
          "data": "0x0000000000000000000000002b11834ed1feaed4b4b3a86a6f571315e25a884d000000000000000000000000000000000000000000000000000000000000759500000000000000000000000000000000000000000000000000000000000000000000000000000000000000000000000000000000000000000000000000000000",
          "blockHash": "0x0a3fa0d2db726a7c28e44e6ad1f7b37d46993bccdab58b5b0d7beaf55a5b2a64",
          "blockNumber": "0x14c2f61",
          "transactionHash": "0xf20ec59fbff921b7e217ab12e24dfb93d83fa251b408c8010747414a0082256b",
          "transactionIndex": "0x82",
          "logIndex": "0x180",
          "removed": false
        }
      ],
      "logsBloom": "0x00000000000000000000020800000000000000000000000000000000001000020400000000000000000000000000000000000000000000000000000000000000000000000000000000000000000000000000000000800000000000000000000000000000000000000000000000000000000000000010000000000000000000100000000000000000000000000000000000000000000000000000000000000000000000000000000000000000000000000000000000000000000000000000000000000000000000000000000000000000000000000000000000000000000000000000000000000000000000000000000000000000010000000000000000000000",
      "type": "0x2",
      "transactionHash": "0xf20ec59fbff921b7e217ab12e24dfb93d83fa251b408c8010747414a0082256b",
      "transactionIndex": "0x82",
      "blockHash": "0x0a3fa0d2db726a7c28e44e6ad1f7b37d46993bccdab58b5b0d7beaf55a5b2a64",
      "blockNumber": "0x14c2f61",
      "gasUsed": "0xfba1",
      "effectiveGasPrice": "0xd120d571",
      "from": "0x84db3d1de9a43aa144c21b248ad31a1c83d8334d",
      "to": "0x1a44076050125825900e736c501f859c50fe728c",
      "contractAddress": null
    }
  ],
  "libraries": [],
  "pending": [],
  "returns": {},
  "timestamp": 1738635134,
  "chain": 1,
  "commit": "abe79db"
}