{
  "transactions": [
    {
      "hash": "0x6e05d6d35f195505419b8d573d3e06c8df1f06eb067726cf07dc1116d17b7bec",
      "transactionType": "CALL",
      "contractName": "MocaToken",
      "contractAddress": "0xf944e35f95e819e752f3ccb5faf40957d311e8c5",
      "function": "approve(address,uint256)",
      "arguments": [
        "0x2B11834Ed1FeAEd4b4b3a86A6F571315E25A884D",
        "10000000000000000000"
      ],
      "transaction": {
        "from": "0x84db3d1de9a43aa144c21b248ad31a1c83d8334d",
        "to": "0xf944e35f95e819e752f3ccb5faf40957d311e8c5",
        "gas": "0x1090a",
        "value": "0x0",
        "input": "0x095ea7b30000000000000000000000002b11834ed1feaed4b4b3a86a6f571315e25a884d0000000000000000000000000000000000000000000000008ac7230489e80000",
        "nonce": "0x12",
        "chainId": "0x1"
      },
      "additionalContracts": [],
      "isFixedGasLimit": false
    },
    {
      "hash": null,
      "transactionType": "CALL",
      "contractName": "MocaTokenAdapter",
      "contractAddress": "0x2b11834ed1feaed4b4b3a86a6f571315e25a884d",
      "function": "send((uint32,bytes32,uint256,uint256,bytes,bytes,bytes),(uint256,uint256),address)",
      "arguments": [
        "(30184, 0x00000000000000000000000084db3d1de9a43aa144c21b248ad31a1c83d8334d, 1000000000000000000, 1000000000000000000, 0x, 0x, 0x)",
        "(57474359700380, 0)",
        "0x84Db3d1de9a43Aa144C21b248AD31a1c83d8334D"
      ],
      "transaction": {
        "from": "0x84db3d1de9a43aa144c21b248ad31a1c83d8334d",
        "to": "0x2b11834ed1feaed4b4b3a86a6f571315e25a884d",
        "gas": "0x82055",
        "value": "0x3445cacb2b9c",
        "input": "0xc7c7f5b3000000000000000000000000000000000000000000000000000000000000008000000000000000000000000000000000000000000000000000003445cacb2b9c000000000000000000000000000000000000000000000000000000000000000000000000000000000000000084db3d1de9a43aa144c21b248ad31a1c83d8334d00000000000000000000000000000000000000000000000000000000000075e800000000000000000000000084db3d1de9a43aa144c21b248ad31a1c83d8334d0000000000000000000000000000000000000000000000000de0b6b3a76400000000000000000000000000000000000000000000000000000de0b6b3a764000000000000000000000000000000000000000000000000000000000000000000e000000000000000000000000000000000000000000000000000000000000001000000000000000000000000000000000000000000000000000000000000000120000000000000000000000000000000000000000000000000000000000000000000000000000000000000000000000000000000000000000000000000000000000000000000000000000000000000000000000000000000000000000000000000",
        "nonce": "0x13",
        "chainId": "0x1"
      },
      "additionalContracts": [],
      "isFixedGasLimit": false
    }
  ],
  "receipts": [],
  "libraries": [],
  "pending": [
    "0x6e05d6d35f195505419b8d573d3e06c8df1f06eb067726cf07dc1116d17b7bec"
  ],
  "returns": {},
  "timestamp": 1738636405,
  "chain": 1,
  "commit": "abe79db"
}