{
  "transactions": [
    {
      "hash": "0xddf37e0cde5dc23b419e741575b1f8189bb790e7bd9755ed957bfc457d33e459",
      "transactionType": "CALL",
      "contractName": "MocaTokenAdapter",
      "contractAddress": "0x2b11834ed1feaed4b4b3a86a6f571315e25a884d",
      "function": "setWhitelist(address,bool)",
      "arguments": [
        "0x84Db3d1de9a43Aa144C21b248AD31a1c83d8334D",
        "true"
      ],
      "transaction": {
        "from": "0x84db3d1de9a43aa144c21b248ad31a1c83d8334d",
        "to": "0x2b11834ed1feaed4b4b3a86a6f571315e25a884d",
        "gas": "0x102b4",
        "value": "0x0",
        "input": "0x53d6fd5900000000000000000000000084db3d1de9a43aa144c21b248ad31a1c83d8334d0000000000000000000000000000000000000000000000000000000000000001",
        "nonce": "0xc",
        "chainId": "0x1"
      },
      "additionalContracts": [],
      "isFixedGasLimit": false
    },
    {
      "hash": "0x7a020516c2fe3ebaffda4df4ff4bc411180b647ca6c3dddd653a1611e9a42e40",
      "transactionType": "CALL",
      "contractName": "MocaTokenAdapter",
      "contractAddress": "0x2b11834ed1feaed4b4b3a86a6f571315e25a884d",
      "function": "setWhitelist(address,bool)",
      "arguments": [
        "0x228e0f99adf8bf367100BBFD9b090Bc0b15c89a9",
        "true"
      ],
      "transaction": {
        "from": "0x84db3d1de9a43aa144c21b248ad31a1c83d8334d",
        "to": "0x2b11834ed1feaed4b4b3a86a6f571315e25a884d",
        "gas": "0x111db",
        "value": "0x0",
        "input": "0x53d6fd59000000000000000000000000228e0f99adf8bf367100bbfd9b090bc0b15c89a90000000000000000000000000000000000000000000000000000000000000001",
        "nonce": "0xd",
        "chainId": "0x1"
      },
      "additionalContracts": [],
      "isFixedGasLimit": false
    }
  ],
  "receipts": [
    {
      "status": "0x1",
      "cumulativeGasUsed": "0xab4fc6",
      "logs": [
        {
          "address": "0x2b11834ed1feaed4b4b3a86a6f571315e25a884d",
          "topics": [
            "0xf6019ec0a78d156d249a1ec7579e2321f6ac7521d6e1d2eacf90ba4a184dcceb",
            "0x00000000000000000000000084db3d1de9a43aa144c21b248ad31a1c83d8334d"
          ],
          "data": "0x0000000000000000000000000000000000000000000000000000000000000001",
          "blockHash": "0x459cbf05e2ee7ba05f00579bdda80c63280fc3f6c184d7c65f1a0cf7d2814695",
          "blockNumber": "0x14c2f59",
          "transactionHash": "0xddf37e0cde5dc23b419e741575b1f8189bb790e7bd9755ed957bfc457d33e459",
          "transactionIndex": "0x7d",
          "logIndex": "0x112",
          "removed": false
        }
      ],
      "logsBloom": "0x40000000000000000000000000000000000000000000000000000000000000000000000000000000000000000000080000000000002000000000000000800000000000000000000000000000000000000000000000000000000000000000000000000000000000000000000000000000020000000000000000000000000000000000000000000000000000000000000000000000000000000000000000000000000000000000000000000000020000000000000000020000000000000000020000000000000000000000000000000000000000000000000000000000000000000000000000000000000000020000000000000000000000000000000000000000",
      "type": "0x2",
      "transactionHash": "0xddf37e0cde5dc23b419e741575b1f8189bb790e7bd9755ed957bfc457d33e459",
      "transactionIndex": "0x7d",
      "blockHash": "0x459cbf05e2ee7ba05f00579bdda80c63280fc3f6c184d7c65f1a0cf7d2814695",
      "blockNumber": "0x14c2f59",
      "gasUsed": "0xbb4d",
      "effectiveGasPrice": "0xd79c41d7",
      "from": "0x84db3d1de9a43aa144c21b248ad31a1c83d8334d",
      "to": "0x2b11834ed1feaed4b4b3a86a6f571315e25a884d",
      "contractAddress": null
    },
    {
      "status": "0x1",
      "cumulativeGasUsed": "0xac0b07",
      "logs": [
        {
          "address": "0x2b11834ed1feaed4b4b3a86a6f571315e25a884d",
          "topics": [
            "0xf6019ec0a78d156d249a1ec7579e2321f6ac7521d6e1d2eacf90ba4a184dcceb",
            "0x000000000000000000000000228e0f99adf8bf367100bbfd9b090bc0b15c89a9"
          ],
          "data": "0x0000000000000000000000000000000000000000000000000000000000000001",
          "blockHash": "0x459cbf05e2ee7ba05f00579bdda80c63280fc3f6c184d7c65f1a0cf7d2814695",
          "blockNumber": "0x14c2f59",
          "transactionHash": "0x7a020516c2fe3ebaffda4df4ff4bc411180b647ca6c3dddd653a1611e9a42e40",
          "transactionIndex": "0x7e",
          "logIndex": "0x113",
          "removed": false
        }
      ],
      "logsBloom": "0x00000000000000000000000000000000040000000000000000000000000000000000000000000000000000000000080000000000002000000000000000000000000000000000000000000000000000000000000000000000000000000000000000000000000000400000000000000000020000000000000000000000000000000000000000000000000000000000000000000000000000000000000000000000000000000000000000000000020000000000000000020000000000000000020000000000000000000000000000000000000000000000000040000000000000000000000000000000000000000000000000000000000000000000000000000000",
      "type": "0x2",
      "transactionHash": "0x7a020516c2fe3ebaffda4df4ff4bc411180b647ca6c3dddd653a1611e9a42e40",
      "transactionIndex": "0x7e",
      "blockHash": "0x459cbf05e2ee7ba05f00579bdda80c63280fc3f6c184d7c65f1a0cf7d2814695",
      "blockNumber": "0x14c2f59",
      "gasUsed": "0xbb41",
      "effectiveGasPrice": "0xd79c41d7",
      "from": "0x84db3d1de9a43aa144c21b248ad31a1c83d8334d",
      "to": "0x2b11834ed1feaed4b4b3a86a6f571315e25a884d",
      "contractAddress": null
    }
  ],
  "libraries": [],
  "pending": [],
  "returns": {},
  "timestamp": 1738635039,
  "chain": 1,
  "commit": "abe79db"
}