{
  "transactions": [
    {
      "hash": "0x72c6b257db682aa5169fee7995d63d0722631689254db977cbb594805a83b3c6",
      "transactionType": "CALL",
      "contractName": null,
      "contractAddress": "0x1a44076050125825900e736c501f859c50fe728c",
      "function": "setConfig(address,address,(uint32,uint32,bytes)[])",
      "arguments": [
        "0x2B11834Ed1FeAEd4b4b3a86A6F571315E25A884D",
        "0xbB2Ea70C9E858123480642Cf96acbcCE1372dCe1",
        "[(30184, 2, 0x0000000000000000000000000000000000000000000000000000000000000020000000000000000000000000000000000000000000000000000000000000000f00000000000000000000000000000000000000000000000000000000000000040000000000000000000000000000000000000000000000000000000000000000000000000000000000000000000000000000000000000000000000000000000000000000000000000000000000000000000000000000000000000000000000c000000000000000000000000000000000000000000000000000000000000001600000000000000000000000000000000000000000000000000000000000000004000000000000000000000000589dedbd617e0cbcb916a9223f4d1300c294236b000000000000000000000000a59ba433ac34d2927232918ef5b2eaafcf130ba5000000000000000000000000c9ca319f6da263910fd9b037ec3d817a814ef3d8000000000000000000000000d56e4eab23cb81f43168f9f45211eb027b9ac7cc0000000000000000000000000000000000000000000000000000000000000000)]"
      ],
      "transaction": {
        "from": "0x84db3d1de9a43aa144c21b248ad31a1c83d8334d",
        "to": "0x1a44076050125825900e736c501f859c50fe728c",
        "gas": "0x3eace",
        "value": "0x0",
        "input": "0x6dbd9f900000000000000000000000002b11834ed1feaed4b4b3a86a6f571315e25a884d000000000000000000000000bb2ea70c9e858123480642cf96acbcce1372dce100000000000000000000000000000000000000000000000000000000000000600000000000000000000000000000000000000000000000000000000000000001000000000000000000000000000000000000000000000000000000000000002000000000000000000000000000000000000000000000000000000000000075e80000000000000000000000000000000000000000000000000000000000000002000000000000000000000000000000000000000000000000000000000000006000000000000000000000000000000000000000000000000000000000000001a00000000000000000000000000000000000000000000000000000000000000020000000000000000000000000000000000000000000000000000000000000000f00000000000000000000000000000000000000000000000000000000000000040000000000000000000000000000000000000000000000000000000000000000000000000000000000000000000000000000000000000000000000000000000000000000000000000000000000000000000000000000000000000000000000c000000000000000000000000000000000000000000000000000000000000001600000000000000000000000000000000000000000000000000000000000000004000000000000000000000000589dedbd617e0cbcb916a9223f4d1300c294236b000000000000000000000000a59ba433ac34d2927232918ef5b2eaafcf130ba5000000000000000000000000c9ca319f6da263910fd9b037ec3d817a814ef3d8000000000000000000000000d56e4eab23cb81f43168f9f45211eb027b9ac7cc0000000000000000000000000000000000000000000000000000000000000000",
        "nonce": "0x10",
        "chainId": "0x1"
      },
      "additionalContracts": [],
      "isFixedGasLimit": false
    }
  ],
  "receipts": [
    {
      "status": "0x1",
      "cumulativeGasUsed": "0xda8a0d",
      "logs": [
        {
          "address": "0xbb2ea70c9e858123480642cf96acbcce1372dce1",
          "topics": [
            "0x82118522aa536ac0e96cc5c689407ae42b89d592aa133890a01f1509842f5081"
          ],
          "data": "0x0000000000000000000000002b11834ed1feaed4b4b3a86a6f571315e25a884d00000000000000000000000000000000000000000000000000000000000075e80000000000000000000000000000000000000000000000000000000000000060000000000000000000000000000000000000000000000000000000000000000f00000000000000000000000000000000000000000000000000000000000000040000000000000000000000000000000000000000000000000000000000000000000000000000000000000000000000000000000000000000000000000000000000000000000000000000000000000000000000000000000000000000000000c000000000000000000000000000000000000000000000000000000000000001600000000000000000000000000000000000000000000000000000000000000004000000000000000000000000589dedbd617e0cbcb916a9223f4d1300c294236b000000000000000000000000a59ba433ac34d2927232918ef5b2eaafcf130ba5000000000000000000000000c9ca319f6da263910fd9b037ec3d817a814ef3d8000000000000000000000000d56e4eab23cb81f43168f9f45211eb027b9ac7cc0000000000000000000000000000000000000000000000000000000000000000",
          "blockHash": "0x4c0b51c88944309e725dd9dc6647e501ae554579646682fd4fedfea4d022abb4",
          "blockNumber": "0x14c2f99",
          "transactionHash": "0x72c6b257db682aa5169fee7995d63d0722631689254db977cbb594805a83b3c6",
          "transactionIndex": "0xc3",
          "logIndex": "0x168",
          "removed": false
        }
      ],
      "logsBloom": "0x00000000000000000000000000000000000000000000000000000000000000000400000000000000000000000000000000000000000000000000000000000000000000000000000000000000000000000000200000000000002000000000000000000000000000000000000000000000000000000000000000000000000000000000000000000000001000000000000000000000000000000000000000000000000000000000000000000002000000000000000000000000000000000000000000000000000000000000000000000000000000000000000000000000000000000000000000000000000000000000000000000000000000000000000000000010",
      "type": "0x2",
      "transactionHash": "0x72c6b257db682aa5169fee7995d63d0722631689254db977cbb594805a83b3c6",
      "transactionIndex": "0xc3",
      "blockHash": "0x4c0b51c88944309e725dd9dc6647e501ae554579646682fd4fedfea4d022abb4",
      "blockNumber": "0x14c2f99",
      "gasUsed": "0x2d604",
      "effectiveGasPrice": "0xc2028f3a",
      "from": "0x84db3d1de9a43aa144c21b248ad31a1c83d8334d",
      "to": "0x1a44076050125825900e736c501f859c50fe728c",
      "contractAddress": null
    }
  ],
  "libraries": [],
  "pending": [],
  "returns": {},
  "timestamp": 1738635807,
  "chain": 1,
  "commit": "abe79db"
}