{
  "transactions": [
    {
      "hash": "0x86550002b6d6b4bf956449ae244a08ab3113011b2d3219a554f93bb306ac3b9b",
      "transactionType": "CALL",
      "contractName": "MocaTokenAdapter",
      "contractAddress": "0x2b11834ed1feaed4b4b3a86a6f571315e25a884d",
      "function": "setDelegate(address)",
      "arguments": [
        "0x869dF055A67669D0d8CfA590dBFAa86fF48B7eac"
      ],
      "transaction": {
        "from": "0x84db3d1de9a43aa144c21b248ad31a1c83d8334d",
        "to": "0x2b11834ed1feaed4b4b3a86a6f571315e25a884d",
        "gas": "0xc0df",
        "value": "0x0",
        "input": "0xca5eb5e1000000000000000000000000869df055a67669d0d8cfa590dbfaa86ff48b7eac",
        "nonce": "0x16",
        "chainId": "0x1"
      },
      "additionalContracts": [],
      "isFixedGasLimit": false
    }
  ],
  "receipts": [
    {
      "status": "0x1",
      "cumulativeGasUsed": "0xa9ce8b",
      "logs": [
        {
          "address": "0x1a44076050125825900e736c501f859c50fe728c",
          "topics": [
            "0x6ee10e9ed4d6ce9742703a498707862f4b00f1396a87195eb93267b3d7983981"
          ],
          "data": "0x0000000000000000000000002b11834ed1feaed4b4b3a86a6f571315e25a884d000000000000000000000000869df055a67669d0d8cfa590dbfaa86ff48b7eac",
          "blockHash": "0xba61d18b19e3e6a580f4be2f5c87ab958bd3511fa2fa49bbd3a5e271c3f77cda",
          "blockNumber": "0x14c30a5",
          "transactionHash": "0x86550002b6d6b4bf956449ae244a08ab3113011b2d3219a554f93bb306ac3b9b",
          "transactionIndex": "0x93",
          "logIndex": "0x11e",
          "removed": false
        }
      ],
      "logsBloom": "0x00000000000000000000000000000000000000000000000000800000001000000000000000000000000000000000000000000002000000000000000000000000000000000000000000000000000000000000000000000000000000000000000000000000000000000000000000000000000000000010000000000000000000000000000000000000000000000000000000000000000000000000000000000000000000000000000000000000000000000000000000000000000000000000000400000000000000000000000000000000000000000000000000000000000000000000000000000000000000000000000000000000010000000000000000000000",
      "type": "0x2",
      "transactionHash": "0x86550002b6d6b4bf956449ae244a08ab3113011b2d3219a554f93bb306ac3b9b",
      "transactionIndex": "0x93",
      "blockHash": "0xba61d18b19e3e6a580f4be2f5c87ab958bd3511fa2fa49bbd3a5e271c3f77cda",
      "blockNumber": "0x14c30a5",
      "gasUsed": "0x83e1",
      "effectiveGasPrice": "0xad4e01f3",
      "from": "0x84db3d1de9a43aa144c21b248ad31a1c83d8334d",
      "to": "0x2b11834ed1feaed4b4b3a86a6f571315e25a884d",
      "contractAddress": null
    }
  ],
  "libraries": [],
  "pending": [],
  "returns": {},
  "timestamp": 1738639035,
  "chain": 1,
  "commit": "abe79db"
}