{
  "transactions": [
    {
      "hash": "0xd1fb54fd6995fd44aba8df79756a9a7817516ff81e87ef6e079c28953dff2a31",
      "transactionType": "CALL",
      "contractName": "MocaTokenAdapter",
      "contractAddress": "0x2b11834ed1feaed4b4b3a86a6f571315e25a884d",
      "function": "setPeer(uint32,bytes32)",
      "arguments": [
        "30184",
        "0x0000000000000000000000002b11834ed1feaed4b4b3a86a6f571315e25a884d"
      ],
      "transaction": {
        "from": "0x84db3d1de9a43aa144c21b248ad31a1c83d8334d",
        "to": "0x2b11834ed1feaed4b4b3a86a6f571315e25a884d",
        "gas": "0x1016a",
        "value": "0x0",
        "input": "0x3400288b00000000000000000000000000000000000000000000000000000000000075e80000000000000000000000002b11834ed1feaed4b4b3a86a6f571315e25a884d",
        "nonce": "0xa",
        "chainId": "0x1"
      },
      "additionalContracts": [],
      "isFixedGasLimit": false
    }
  ],
  "receipts": [
    {
      "status": "0x1",
      "cumulativeGasUsed": "0x99cf05",
      "logs": [
        {
          "address": "0x2b11834ed1feaed4b4b3a86a6f571315e25a884d",
          "topics": [
            "0x238399d427b947898edb290f5ff0f9109849b1c3ba196a42e35f00c50a54b98b"
          ],
          "data": "0x00000000000000000000000000000000000000000000000000000000000075e80000000000000000000000002b11834ed1feaed4b4b3a86a6f571315e25a884d",
          "blockHash": "0x53620fc2dc13a8ac62d568c56f1411adc9ef28446362d9851a947f2855bd5eb4",
          "blockNumber": "0x14c2f4f",
          "transactionHash": "0xd1fb54fd6995fd44aba8df79756a9a7817516ff81e87ef6e079c28953dff2a31",
          "transactionIndex": "0x7c",
          "logIndex": "0xec",
          "removed": false
        }
      ],
      "logsBloom": "0x00000000000000000000000000000000000000000000000000000000000000000000000000000000000000000000080000000000002000000800000000000000000000000000000000000000000000000000000000000000000000000000000000000000000000000000000000000000000000000000000000000000000000000000000000000000000000000000000000000000000000000000000000000000000000000000000000000000020000000000000000000000000002000000000000000000000000000000000000000000000000000000000000040000000000000000000000000000000000000000000000000000000000000000000000000000",
      "type": "0x2",
      "transactionHash": "0xd1fb54fd6995fd44aba8df79756a9a7817516ff81e87ef6e079c28953dff2a31",
      "transactionIndex": "0x7c",
      "blockHash": "0x53620fc2dc13a8ac62d568c56f1411adc9ef28446362d9851a947f2855bd5eb4",
      "blockNumber": "0x14c2f4f",
      "gasUsed": "0xba5e",
      "effectiveGasPrice": "0xd876904e",
      "from": "0x84db3d1de9a43aa144c21b248ad31a1c83d8334d",
      "to": "0x2b11834ed1feaed4b4b3a86a6f571315e25a884d",
      "contractAddress": null
    }
  ],
  "libraries": [],
  "pending": [],
  "returns": {},
  "timestamp": 1738634918,
  "chain": 1,
  "commit": "abe79db"
}